{
  "_format": "hh-sol-artifact-1",
  "contractName": "DexPool",
  "sourceName": "contracts/DexPool.sol",
  "abi": [
    {
      "inputs": [
        {
          "internalType": "contract IERC20",
          "name": "_token0",
          "type": "address"
        },
        {
          "internalType": "contract IERC20",
          "name": "_token1",
          "type": "address"
        },
        {
          "internalType": "string",
          "name": "name",
          "type": "string"
        },
        {
          "internalType": "string",
          "name": "symbol",
          "type": "string"
        }
      ],
      "stateMutability": "nonpayable",
      "type": "constructor"
    },
    {
      "anonymous": false,
      "inputs": [
        {
          "indexed": true,
          "internalType": "address",
          "name": "owner",
          "type": "address"
        },
        {
          "indexed": true,
          "internalType": "address",
          "name": "spender",
          "type": "address"
        },
        {
          "indexed": false,
          "internalType": "uint256",
          "name": "value",
          "type": "uint256"
        }
      ],
      "name": "Approval",
      "type": "event"
    },
    {
      "anonymous": false,
      "inputs": [
        {
          "indexed": true,
          "internalType": "address",
          "name": "provider",
          "type": "address"
        },
        {
          "indexed": false,
          "internalType": "uint256",
          "name": "amount0",
          "type": "uint256"
        },
        {
          "indexed": false,
          "internalType": "uint256",
          "name": "amount1",
          "type": "uint256"
        },
        {
          "indexed": false,
          "internalType": "uint256",
          "name": "liquidity",
          "type": "uint256"
        }
      ],
      "name": "LiquidityAdded",
      "type": "event"
    },
    {
      "anonymous": false,
      "inputs": [
        {
          "indexed": true,
          "internalType": "address",
          "name": "provider",
          "type": "address"
        },
        {
          "indexed": false,
          "internalType": "uint256",
          "name": "amount0",
          "type": "uint256"
        },
        {
          "indexed": false,
          "internalType": "uint256",
          "name": "amount1",
          "type": "uint256"
        },
        {
          "indexed": false,
          "internalType": "uint256",
          "name": "liquidity",
          "type": "uint256"
        }
      ],
      "name": "LiquidityRemoved",
      "type": "event"
    },
    {
      "anonymous": false,
      "inputs": [
        {
          "indexed": true,
          "internalType": "address",
          "name": "previousOwner",
          "type": "address"
        },
        {
          "indexed": true,
          "internalType": "address",
          "name": "newOwner",
          "type": "address"
        }
      ],
      "name": "OwnershipTransferred",
      "type": "event"
    },
    {
      "anonymous": false,
      "inputs": [
        {
          "indexed": false,
          "internalType": "address",
          "name": "account",
          "type": "address"
        }
      ],
      "name": "Paused",
      "type": "event"
    },
    {
      "anonymous": false,
      "inputs": [
        {
          "indexed": true,
          "internalType": "address",
          "name": "swapper",
          "type": "address"
        },
        {
          "indexed": false,
          "internalType": "uint256",
          "name": "amountIn",
          "type": "uint256"
        },
        {
          "indexed": false,
          "internalType": "uint256",
          "name": "amountOut",
          "type": "uint256"
        },
        {
          "indexed": true,
          "internalType": "address",
          "name": "tokenIn",
          "type": "address"
        },
        {
          "indexed": true,
          "internalType": "address",
          "name": "tokenOut",
          "type": "address"
        }
      ],
      "name": "Swap",
      "type": "event"
    },
    {
      "anonymous": false,
      "inputs": [
        {
          "indexed": true,
          "internalType": "address",
          "name": "from",
          "type": "address"
        },
        {
          "indexed": true,
          "internalType": "address",
          "name": "to",
          "type": "address"
        },
        {
          "indexed": false,
          "internalType": "uint256",
          "name": "value",
          "type": "uint256"
        }
      ],
      "name": "Transfer",
      "type": "event"
    },
    {
      "anonymous": false,
      "inputs": [
        {
          "indexed": false,
          "internalType": "address",
          "name": "account",
          "type": "address"
        }
      ],
      "name": "Unpaused",
      "type": "event"
    },
    {
      "inputs": [],
      "name": "FEE_DENOMINATOR",
      "outputs": [
        {
          "internalType": "uint256",
          "name": "",
          "type": "uint256"
        }
      ],
      "stateMutability": "view",
      "type": "function"
    },
    {
      "inputs": [],
      "name": "FEE_PERCENTAGE",
      "outputs": [
        {
          "internalType": "uint256",
          "name": "",
          "type": "uint256"
        }
      ],
      "stateMutability": "view",
      "type": "function"
    },
    {
      "inputs": [
        {
          "internalType": "uint256",
          "name": "amount0",
          "type": "uint256"
        },
        {
          "internalType": "uint256",
          "name": "amount1",
          "type": "uint256"
        },
        {
          "internalType": "uint256",
          "name": "minLiquidity",
          "type": "uint256"
        }
      ],
      "name": "addLiquidity",
      "outputs": [
        {
          "internalType": "uint256",
          "name": "liquidity",
          "type": "uint256"
        }
      ],
      "stateMutability": "nonpayable",
      "type": "function"
    },
    {
      "inputs": [
        {
          "internalType": "address",
          "name": "owner",
          "type": "address"
        },
        {
          "internalType": "address",
          "name": "spender",
          "type": "address"
        }
      ],
      "name": "allowance",
      "outputs": [
        {
          "internalType": "uint256",
          "name": "",
          "type": "uint256"
        }
      ],
      "stateMutability": "view",
      "type": "function"
    },
    {
      "inputs": [
        {
          "internalType": "address",
          "name": "spender",
          "type": "address"
        },
        {
          "internalType": "uint256",
          "name": "amount",
          "type": "uint256"
        }
      ],
      "name": "approve",
      "outputs": [
        {
          "internalType": "bool",
          "name": "",
          "type": "bool"
        }
      ],
      "stateMutability": "nonpayable",
      "type": "function"
    },
    {
      "inputs": [
        {
          "internalType": "address",
          "name": "account",
          "type": "address"
        }
      ],
      "name": "balanceOf",
      "outputs": [
        {
          "internalType": "uint256",
          "name": "",
          "type": "uint256"
        }
      ],
      "stateMutability": "view",
      "type": "function"
    },
    {
      "inputs": [],
      "name": "decimals",
      "outputs": [
        {
          "internalType": "uint8",
          "name": "",
          "type": "uint8"
        }
      ],
      "stateMutability": "view",
      "type": "function"
    },
    {
      "inputs": [
        {
          "internalType": "address",
          "name": "spender",
          "type": "address"
        },
        {
          "internalType": "uint256",
          "name": "subtractedValue",
          "type": "uint256"
        }
      ],
      "name": "decreaseAllowance",
      "outputs": [
        {
          "internalType": "bool",
          "name": "",
          "type": "bool"
        }
      ],
      "stateMutability": "nonpayable",
      "type": "function"
    },
    {
      "inputs": [],
      "name": "feeCollected0",
      "outputs": [
        {
          "internalType": "uint256",
          "name": "",
          "type": "uint256"
        }
      ],
      "stateMutability": "view",
      "type": "function"
    },
    {
      "inputs": [],
      "name": "feeCollected1",
      "outputs": [
        {
          "internalType": "uint256",
          "name": "",
          "type": "uint256"
        }
      ],
      "stateMutability": "view",
      "type": "function"
    },
    {
      "inputs": [
        {
          "internalType": "uint256",
          "name": "amountOut",
          "type": "uint256"
        },
        {
          "internalType": "contract IERC20",
          "name": "tokenIn",
          "type": "address"
        }
      ],
      "name": "getAmountIn",
      "outputs": [
        {
          "internalType": "uint256",
          "name": "amountIn",
          "type": "uint256"
        }
      ],
      "stateMutability": "view",
      "type": "function"
    },
    {
      "inputs": [
        {
          "internalType": "uint256",
          "name": "amountIn",
          "type": "uint256"
        },
        {
          "internalType": "contract IERC20",
          "name": "tokenIn",
          "type": "address"
        }
      ],
      "name": "getAmountOut",
      "outputs": [
        {
          "internalType": "uint256",
          "name": "amountOut",
          "type": "uint256"
        }
      ],
      "stateMutability": "view",
      "type": "function"
    },
    {
      "inputs": [],
      "name": "getPrice0",
      "outputs": [
        {
          "internalType": "uint256",
          "name": "",
          "type": "uint256"
        }
      ],
      "stateMutability": "view",
      "type": "function"
    },
    {
      "inputs": [],
      "name": "getPrice1",
      "outputs": [
        {
          "internalType": "uint256",
          "name": "",
          "type": "uint256"
        }
      ],
      "stateMutability": "view",
      "type": "function"
    },
    {
      "inputs": [],
      "name": "getReserves",
      "outputs": [
        {
          "internalType": "uint256",
          "name": "",
          "type": "uint256"
        },
        {
          "internalType": "uint256",
          "name": "",
          "type": "uint256"
        }
      ],
      "stateMutability": "view",
      "type": "function"
    },
    {
      "inputs": [
        {
          "internalType": "address",
          "name": "spender",
          "type": "address"
        },
        {
          "internalType": "uint256",
          "name": "addedValue",
          "type": "uint256"
        }
      ],
      "name": "increaseAllowance",
      "outputs": [
        {
          "internalType": "bool",
          "name": "",
          "type": "bool"
        }
      ],
      "stateMutability": "nonpayable",
      "type": "function"
    },
    {
      "inputs": [],
      "name": "lastKValue",
      "outputs": [
        {
          "internalType": "uint256",
          "name": "",
          "type": "uint256"
        }
      ],
      "stateMutability": "view",
      "type": "function"
    },
    {
      "inputs": [],
      "name": "name",
      "outputs": [
        {
          "internalType": "string",
          "name": "",
          "type": "string"
        }
      ],
      "stateMutability": "view",
      "type": "function"
    },
    {
      "inputs": [],
      "name": "owner",
      "outputs": [
        {
          "internalType": "address",
          "name": "",
          "type": "address"
        }
      ],
      "stateMutability": "view",
      "type": "function"
    },
    {
      "inputs": [],
      "name": "paused",
      "outputs": [
        {
          "internalType": "bool",
          "name": "",
          "type": "bool"
        }
      ],
      "stateMutability": "view",
      "type": "function"
    },
    {
      "inputs": [
        {
          "internalType": "uint256",
          "name": "liquidity",
          "type": "uint256"
        },
        {
          "internalType": "uint256",
          "name": "minAmount0",
          "type": "uint256"
        },
        {
          "internalType": "uint256",
          "name": "minAmount1",
          "type": "uint256"
        }
      ],
      "name": "removeLiquidity",
      "outputs": [
        {
          "internalType": "uint256",
          "name": "amount0",
          "type": "uint256"
        },
        {
          "internalType": "uint256",
          "name": "amount1",
          "type": "uint256"
        }
      ],
      "stateMutability": "nonpayable",
      "type": "function"
    },
    {
      "inputs": [],
      "name": "renounceOwnership",
      "outputs": [],
      "stateMutability": "nonpayable",
      "type": "function"
    },
    {
      "inputs": [],
      "name": "reserve0",
      "outputs": [
        {
          "internalType": "uint256",
          "name": "",
          "type": "uint256"
        }
      ],
      "stateMutability": "view",
      "type": "function"
    },
    {
      "inputs": [],
      "name": "reserve1",
      "outputs": [
        {
          "internalType": "uint256",
          "name": "",
          "type": "uint256"
        }
      ],
      "stateMutability": "view",
      "type": "function"
    },
    {
      "inputs": [
        {
          "internalType": "uint256",
          "name": "amountIn",
          "type": "uint256"
        },
        {
          "internalType": "uint256",
          "name": "minAmountOut",
          "type": "uint256"
        },
        {
          "internalType": "contract IERC20",
          "name": "tokenIn",
          "type": "address"
        }
      ],
      "name": "swap",
      "outputs": [
        {
          "internalType": "uint256",
          "name": "amountOut",
          "type": "uint256"
        }
      ],
      "stateMutability": "nonpayable",
      "type": "function"
    },
    {
      "inputs": [],
      "name": "symbol",
      "outputs": [
        {
          "internalType": "string",
          "name": "",
          "type": "string"
        }
      ],
      "stateMutability": "view",
      "type": "function"
    },
    {
      "inputs": [],
      "name": "token0",
      "outputs": [
        {
          "internalType": "contract IERC20",
          "name": "",
          "type": "address"
        }
      ],
      "stateMutability": "view",
      "type": "function"
    },
    {
      "inputs": [],
      "name": "token1",
      "outputs": [
        {
          "internalType": "contract IERC20",
          "name": "",
          "type": "address"
        }
      ],
      "stateMutability": "view",
      "type": "function"
    },
    {
      "inputs": [],
      "name": "totalSupply",
      "outputs": [
        {
          "internalType": "uint256",
          "name": "",
          "type": "uint256"
        }
      ],
      "stateMutability": "view",
      "type": "function"
    },
    {
      "inputs": [
        {
          "internalType": "address",
          "name": "to",
          "type": "address"
        },
        {
          "internalType": "uint256",
          "name": "amount",
          "type": "uint256"
        }
      ],
      "name": "transfer",
      "outputs": [
        {
          "internalType": "bool",
          "name": "",
          "type": "bool"
        }
      ],
      "stateMutability": "nonpayable",
      "type": "function"
    },
    {
      "inputs": [
        {
          "internalType": "address",
          "name": "from",
          "type": "address"
        },
        {
          "internalType": "address",
          "name": "to",
          "type": "address"
        },
        {
          "internalType": "uint256",
          "name": "amount",
          "type": "uint256"
        }
      ],
      "name": "transferFrom",
      "outputs": [
        {
          "internalType": "bool",
          "name": "",
          "type": "bool"
        }
      ],
      "stateMutability": "nonpayable",
      "type": "function"
    },
    {
      "inputs": [
        {
          "internalType": "address",
          "name": "newOwner",
          "type": "address"
        }
      ],
      "name": "transferOwnership",
      "outputs": [],
      "stateMutability": "nonpayable",
      "type": "function"
    }
  ],
  "bytecode": "0x6040608081523462000472576200246190813803806200001f8162000477565b93843982019160808184031262000472576200003b816200049d565b6020916200004b8382016200049d565b8185015190926001600160401b0392909183811162000472578762000072918301620004b2565b96606082015184811162000472576200008c9201620004b2565b95805192808411620003725760038054946001938487811c9716801562000467575b8988101462000451578190601f97888111620003fb575b508990888311600114620003945760009262000388575b505060001982841b1c191690841b1781555b8851918211620003725760049485548481811c9116801562000367575b89821014620003525781811162000307575b50879083116001146200029b5782939495969798996000936200028f575b505082841b92600019911b1c19161783555b6005556006548551936001600160a01b03929091839190338382167f8be0079c531659141344cd1fd0a4f28419497f9722a3daafe3b4186f6b6457e0600080a36001600160a81b0319163360ff60a01b191617600655169384156200025d5750169283156200022a57838314620001e857505060018060a01b031990816007541617600755600854161760085551611f3c9081620005258239f35b845162461bcd60e51b815291820152601860248201527f546f6b656e73206d75737420626520646966666572656e740000000000000000604482015260649150fd5b845162461bcd60e51b815291820152600e60248201526d496e76616c696420746f6b656e3160901b604482015260649150fd5b62461bcd60e51b8152838101869052600e60248201526d0496e76616c696420746f6b656e360941b6044820152606490fd5b0151915038806200013b565b90601f1983169186600052886000209260005b818110620002f157509a84869798999a9b9c10620002d6575b50505050811b0183556200014d565b01519060f884600019921b161c1916905538808080620002c7565b8c830151855593860193918a01918a01620002ae565b86600052886000208280860160051c8201928b871062000348575b0160051c019085905b8281106200033b5750506200011d565b600081550185906200032b565b9250819262000322565b602287634e487b7160e01b6000525260246000fd5b90607f16906200010b565b634e487b7160e01b600052604160045260246000fd5b015190503880620000dc565b90869350601f19831691856000528b6000209260005b8d828210620003e45750508411620003cb575b505050811b018155620000ee565b015160001983861b60f8161c19169055388080620003bd565b8385015186558a97909501949384019301620003aa565b90915083600052896000208880850160051c8201928c861062000447575b918891869594930160051c01915b82811062000437575050620000c5565b6000815585945088910162000427565b9250819262000419565b634e487b7160e01b600052602260045260246000fd5b96607f1696620000ae565b600080fd5b6040519190601f01601f191682016001600160401b038111838210176200037257604052565b51906001600160a01b03821682036200047257565b919080601f84011215620004725782516001600160401b0381116200037257602090620004e8601f8201601f1916830162000477565b92818452828287010111620004725760005b8181106200051057508260009394955001015290565b8581018301518482018401528201620004fa56fe6080604081815260048036101561001557600080fd5b600092833560e01c9081620b46f81461197e5750806306fdde031461188a5780630902f1ac14611865578063095ea7b31461183b5780630dfe1681146118125780631125f13f1461172857806318160ddd146117095780631c20695f146116ea57806323b872dd14611620578063313ce5671461160457806339509351146115b4578063422f1043146110b5578063443cb4bc146110965780635a76f25e146110775780635c975abb1461105057806365f06a63146110315780636d9a640a14610b2457806370a0823114610aed578063715018a614610a90578063857620e1146106225780638da5cb5b146105f957806395d89b41146104f5578063a457c2d714610451578063a9059cbb14610420578063a941ada914610403578063c44418d4146103e4578063d21220a7146103bb578063d73792a91461039e578063dd62ed3e14610355578063e84b8fe514610334578063f140a35a146102505763f2fde38b1461018257600080fd5b3461024c57602036600319011261024c5761019b6119e2565b906101a4611a2d565b6001600160a01b039182169283156101fa575050600654826bffffffffffffffffffffffff60a01b821617600655167f8be0079c531659141344cd1fd0a4f28419497f9722a3daafe3b4186f6b6457e08380a380f35b906020608492519162461bcd60e51b8352820152602660248201527f4f776e61626c653a206e6577206f776e657220697320746865207a65726f206160448201526564647265737360d01b6064820152fd5b8280fd5b509134610331578160031936011261033157823561026c6119fd565b610277821515611e15565b6007546001600160a01b0391821690821681149161029f9183918215610323575b5050611e61565b801561031a57600954905b1561030b576102c56102be600a5493611d75565b9283611d8c565b92612710918281029281840414901517156102f8576020856102f1866102eb8787611abd565b90611d9f565b9051908152f35b634e487b7160e01b815260118652602490fd5b6102c56102be60095493611d75565b600a54906102aa565b600854161490503880610298565b80fd5b5050346103515781600319360112610351576020906102f1611e9d565b5080fd5b505034610351578060031936011261035157806020926103736119e2565b61037b6119fd565b6001600160a01b0391821683526001865283832091168252845220549051908152f35b505034610351578160031936011261035157602090516127108152f35b50503461035157816003193601126103515760085490516001600160a01b039091168152602090f35b505034610351578160031936011261035157602090600d549051908152f35b5050346103515781600319360112610351576020906102f1611ed6565b50503461035157806003193601126103515760209061044a6104406119e2565b6024359033611ae0565b5160018152f35b50823461033157826003193601126103315761046b6119e2565b918360243592338152600160205281812060018060a01b03861682526020522054908282106104a45760208561044a8585038733611c4e565b608490602086519162461bcd60e51b8352820152602560248201527f45524332303a2064656372656173656420616c6c6f77616e63652062656c6f77604482015264207a65726f60d81b6064820152fd5b50919034610351578160031936011261035157805191809380549160019083821c928285169485156105ef575b60209586861081146105dc578589529081156105b85750600114610560575b61055c8787610552828c0383611a85565b5191829182611999565b0390f35b81529295507f8a35acfbc15ff81a39ae7d344fd709f28e8600b4aa8c65c6b64bfe7fe36bd19b5b8284106105a5575050508261055c9461055292820101943880610541565b8054868501880152928601928101610587565b60ff19168887015250505050151560051b83010192506105528261055c3880610541565b634e487b7160e01b845260228352602484fd5b93607f1693610522565b50503461035157816003193601126103515760065490516001600160a01b039091168152602090f35b508290346103515761063336611a13565b9391909261063f611dbf565b8115610a4d57338352602092808452828782205410610a115761066460095484611d8c565b956106876106756002548099611d9f565b97610682600a5487611d8c565b611d9f565b9587106109d757851061099d5733156109505733815280845286812054838110610902578390338352828652038782205582600254036002558087518481527fddf252ad1be2c89b69c2b068fc378daa952ba7f163c4a11628f55a4df523b3ef863392a3600754875163a9059cbb60e01b80825233828601908152602081018a90526001600160a01b0395939192918891839188169082908890829060400103925af180156108a4576108e5575b506008548951918252338383019081526020810189905287918391829003604001908290879089165af180156108db576108ae575b5082600754169088519386856024816370a0823160e01b9687825230878301525afa9485156108a45790879291859661086c575b506024908660095560085416938b519485938492835230908301525afa91821561086157809261082f575b50506107d89181600a55611d8c565b600d557f1dc8bb69df2b8e91fbdcbfcf93d951b3f0000f085a95fe3f7946d6161439245d85518061081d33948789846040919493926060820195825260208201520152565b0390a260016005558351928352820152f35b9091508482813d831161085a575b6108478183611a85565b810103126103315750516107d8886107c9565b503d61083d565b8851903d90823e3d90fd5b838193949297503d831161089d575b6108858183611a85565b81010312610899575193869190602461079e565b8380fd5b503d61087b565b8a513d86823e3d90fd5b6108cd90863d88116108d4575b6108c58183611a85565b810190611d50565b508861076a565b503d6108bb565b89513d85823e3d90fd5b6108fb90873d89116108d4576108c58183611a85565b5089610735565b875162461bcd60e51b8152808401869052602260248201527f45524332303a206275726e20616d6f756e7420657863656564732062616c616e604482015261636560f01b6064820152608490fd5b865162461bcd60e51b8152808301859052602160248201527f45524332303a206275726e2066726f6d20746865207a65726f206164647265736044820152607360f81b6064820152608490fd5b865162461bcd60e51b81528083018590526014602482015273496e73756666696369656e7420616d6f756e743160601b6044820152606490fd5b875162461bcd60e51b815280840186905260146024820152730496e73756666696369656e7420616d6f756e74360641b6044820152606490fd5b865162461bcd60e51b81528083018590526016602482015275496e73756666696369656e74206c697175696469747960501b6044820152606490fd5b606490602087519162461bcd60e51b8352820152602060248201527f4c6971756964697479206d7573742062652067726561746572207468616e20306044820152fd5b8334610331578060031936011261033157610aa9611a2d565b600680546001600160a01b0319811690915581906001600160a01b03167f8be0079c531659141344cd1fd0a4f28419497f9722a3daafe3b4186f6b6457e08280a380f35b5050346103515760203660031901126103515760209181906001600160a01b03610b156119e2565b16815280845220549051908152f35b50903461024c57606036600319011261024c576001600160a01b039160443583811690823590829003610e9e57610b59611dbf565b610b64811515611e15565b84600754169283831493848015611024575b610b7f90611e61565b841561101e57508560085416965b841561101557600954945b1561100b5786600a54985b16948651926370a0823160e01b91828552308286015260209a6024958c8188818d5afa8015610ea957908d91610fe2575b505089516323b872dd60e01b815233848201908152306020820152604081018990528d90829081906060010381898d5af18015610ea957610fc5575b50610c24610c1d88611d75565b9182611d8c565b9161271090818102918183041490151715610fb357610c4792916102eb91611abd565b9884358a10610f71578915610f3757848b8260075416808a14600014610ee0578b519283809288825230888301525afa908115610e12578591610eb3575b505b895184815230848201528c8188818d5afa908115610ea957908c918791610e72575b50610cbe9291610cb891611d68565b90611d8c565b600d5411610e3957885163a9059cbb60e01b815233838201908152602081018c90528c90829081906040010381888d5af18015610e125790869291610e1c575b508b81600754168b519788809288825230888301525afa958615610e1257908c9392918697610dd9575b508660095560085416938a519485938492835230908301525afa918215610dce578092610d9c575b5050610d5f9181600a55611d8c565b600d55835190815284868201527f053d794b2310b8d186a24ae24a65ee066983a52a6efa6bd3df09a7601a3cb4f3843392a4600160055551908152f35b9091508882813d8311610dc7575b610db48183611a85565b81010312610331575051610d5f38610d50565b503d610daa565b8751903d90823e3d90fd5b84819394959298503d8311610e0b575b610df38183611a85565b81010312610e0757908b9291519538610d28565b8480fd5b503d610de9565b8a513d87823e3d90fd5b610e32908d803d106108d4576108c58183611a85565b5038610cfe565b885162461bcd60e51b81528083018c90526014818701527312c81a5b9d985c9a585b9d081d9a5bdb185d195960621b6044820152606490fd5b8092508e8092503d8311610ea2575b610e8b8183611a85565b81010312610e9e57518b90610cbe610ca9565b8580fd5b503d610e81565b8b513d88823e3d90fd5b90508b81813d8311610ed9575b610eca8183611a85565b81010312610e07575138610c85565b503d610ec0565b5082600854168b519283809288825230888301525afa908115610e12578591610f0a575b50610c87565b90508b81813d8311610f30575b610f218183611a85565b81010312610e07575138610f04565b503d610f17565b885162461bcd60e51b81528083018c905260158187015274125b9d985b1a59081bdd5d1c1d5d08185b5bdd5b9d605a1b6044820152606490fd5b885162461bcd60e51b81528083018c9052601a818701527f496e73756666696369656e74206f757470757420616d6f756e740000000000006044820152606490fd5b634e487b7160e01b8652601184528686fd5b610fdb908d803d106108d4576108c58183611a85565b5038610c10565b813d8311611004575b610ff58183611a85565b81010312610e07578b38610bd4565b503d610feb565b8660095498610ba3565b600a5494610b98565b96610b8d565b5060085487168414610b76565b505034610351578160031936011261035157602090600c549051908152f35b50503461035157816003193601126103515760209060ff60065460a01c1690519015158152f35b505034610351578160031936011261035157602090600a549051908152f35b5050346103515781600319360112610351576020906009549051908152f35b50903461024c576110c536611a13565b93906110cf611dbf565b821515806115ab575b156115685760075484516370a0823160e01b8082523085830152602098602496919490936001600160a01b0392908316908b858a81855afa94851561155e57908695949392918a9795611522575b508c84600854168c519b8c80928c82528d30908301525afa998a15610ea957869a6114e9575b508a516323b872dd60e01b80825233828c0190815230602082015260408101939093529290918e91839182908a90829060600103925af18015610ea95789878f946111cb96948f946114cc575b506008549351908152339281019283523060208401526040830194909452929485939287169284929091839160600190565b03925af180156114a55790859392916114af575b508a81600754168a51968780928a8252308c8301525afa9485156114a557908b918596611474575b506008541695838a51809881938252308b8301525afa94851561146a578395611439575b506112396112409185611d68565b9685611d68565b946002549182156000146113f6576112588789611d8c565b8460038211156113e857508060019080821c8281018091116113d65791905b8383106113b6575050505b995b8a10611374573315611332575050927f64b83944e79c3ce8d4c297411de637c3e102d064677aac0c163976ebdcd6f50e949261130f926112c58a8097611abd565b600255338152808b528881208681540190558851908682527fddf252ad1be2c89b69c2b068fc378daa952ba7f163c4a11628f55a4df523b3ef8c3393a38060095581600a55611d8c565b600d558451938452602084015260408301523391606090a2600160055551908152f35b885162461bcd60e51b81529182018b9052601f908201527f45524332303a206d696e7420746f20746865207a65726f2061646472657373006044820152606490fd5b885162461bcd60e51b81529182018b9052601d908201527f496e73756666696369656e74206c6971756964697479206d696e7465640000006044820152606490fd5b909192506113cd836113c88184611d9f565b611abd565b821c9190611277565b634e487b7160e01b8852601186528488fd5b901561128257506001611282565b61140c611403848a611d8c565b60095490611d9f565b611422611419858a611d8c565b600a5490611d9f565b8082101561143257505b99611284565b905061142c565b9094508981813d8311611463575b6114518183611a85565b8101031261024c57519361123961122b565b503d611447565b88513d85823e3d90fd5b8281939297503d831161149e575b61148c8183611a85565b81010312610899578a90519438611207565b503d611482565b89513d86823e3d90fd5b6114c5908c8d3d106108d4576108c58183611a85565b50386111df565b6114e290873d89116108d4576108c58183611a85565b5038611199565b90919c809c9b9a5081813d831161151b575b6115058183611a85565b81010312610e9e57519a9b999a9899908c61114c565b503d6114fb565b8d80929798508193949596503d8311611557575b6115408183611a85565b81010312610e9e5790889594939291519338611126565b503d611536565b8a513d88823e3d90fd5b835162461bcd60e51b8152602081840152601e60248201527f416d6f756e7473206d7573742062652067726561746572207468616e203000006044820152606490fd5b508015156110d8565b50503461035157806003193601126103515761044a6020926115fd6115d76119e2565b338352600186528483206001600160a01b03821684528652918490205460243590611abd565b9033611c4e565b5050346103515781600319360112610351576020905160128152f35b508290346103515760603660031901126103515761163c6119e2565b6116446119fd565b91846044359460018060a01b03841681526001602052818120338252602052205490600019820361167e575b60208661044a878787611ae0565b8482106116a7575091839161169c6020969561044a95033383611c4e565b919394819350611670565b606490602087519162461bcd60e51b8352820152601d60248201527f45524332303a20696e73756666696369656e7420616c6c6f77616e63650000006044820152fd5b505034610351578160031936011261035157602090600b549051908152f35b5050346103515781600319360112610351576020906002549051908152f35b5091903461035157806003193601126103515782356117456119fd565b90611751811515611e15565b6007546001600160a01b039283169083168114926117789184918215610323575050611e61565b811561180957600954915b156117fc5761179581600a5493611d8c565b91612710928381029381850414901517156117e9576117bb6117c093926102eb92611d68565b611d75565b91600183018093116117d6576020838351908152f35b634e487b7160e01b815260118452602490fd5b634e487b7160e01b855260118652602485fd5b6117958160095493611d8c565b600a5491611783565b50503461035157816003193601126103515760075490516001600160a01b039091168152602090f35b50503461035157806003193601126103515760209061044a61185b6119e2565b6024359033611c4e565b82843461033157806003193601126103315750600954600a5482519182526020820152f35b50903461024c578260031936011261024c57805191836003549060019082821c928281168015611974575b6020958686108214611961575084885290811561193f57506001146118e6575b61055c8686610552828b0383611a85565b929550600383527fc2575a0e9e593c00f959f8c92f12db2869c3395a3b0502d05e2516446f71f85b5b82841061192c575050508261055c946105529282010194386118d5565b805486850188015292860192810161190f565b60ff191687860152505050151560051b83010192506105528261055c386118d5565b634e487b7160e01b845260229052602483fd5b93607f16936118b5565b84903461035157816003193601126103515780601e60209252f35b6020808252825181830181905290939260005b8281106119ce57505060409293506000838284010152601f8019910116010190565b8181018601518482016040015285016119ac565b600435906001600160a01b03821682036119f857565b600080fd5b602435906001600160a01b03821682036119f857565b60609060031901126119f857600435906024359060443590565b6006546001600160a01b03163303611a4157565b606460405162461bcd60e51b815260206004820152602060248201527f4f776e61626c653a2063616c6c6572206973206e6f7420746865206f776e65726044820152fd5b90601f8019910116810190811067ffffffffffffffff821117611aa757604052565b634e487b7160e01b600052604160045260246000fd5b91908201809211611aca57565b634e487b7160e01b600052601160045260246000fd5b6001600160a01b03908116918215611bfb5716918215611baa57600082815280602052604081205491808310611b5657604082827fddf252ad1be2c89b69c2b068fc378daa952ba7f163c4a11628f55a4df523b3ef958760209652828652038282205586815220818154019055604051908152a3565b60405162461bcd60e51b815260206004820152602660248201527f45524332303a207472616e7366657220616d6f756e7420657863656564732062604482015265616c616e636560d01b6064820152608490fd5b60405162461bcd60e51b815260206004820152602360248201527f45524332303a207472616e7366657220746f20746865207a65726f206164647260448201526265737360e81b6064820152608490fd5b60405162461bcd60e51b815260206004820152602560248201527f45524332303a207472616e736665722066726f6d20746865207a65726f206164604482015264647265737360d81b6064820152608490fd5b6001600160a01b03908116918215611cff5716918215611caf5760207f8c5be1e5ebec7d5bd14f71427d1e84f3dd0314c0f7b2291e5b200ac8c7c3b925918360005260018252604060002085600052825280604060002055604051908152a3565b60405162461bcd60e51b815260206004820152602260248201527f45524332303a20617070726f766520746f20746865207a65726f206164647265604482015261737360f01b6064820152608490fd5b60405162461bcd60e51b8152602060048201526024808201527f45524332303a20617070726f76652066726f6d20746865207a65726f206164646044820152637265737360e01b6064820152608490fd5b908160209103126119f8575180151581036119f85790565b91908203918211611aca57565b906126f291828102928184041490151715611aca57565b81810292918115918404141715611aca57565b8115611da9570490565b634e487b7160e01b600052601260045260246000fd5b600260055414611dd0576002600555565b60405162461bcd60e51b815260206004820152601f60248201527f5265656e7472616e637947756172643a207265656e7472616e742063616c6c006044820152606490fd5b15611e1c57565b60405162461bcd60e51b815260206004820152601d60248201527f416d6f756e74206d7573742062652067726561746572207468616e20300000006044820152606490fd5b15611e6857565b60405162461bcd60e51b815260206004820152600d60248201526c24b73b30b634b2103a37b5b2b760991b6044820152606490fd5b6009548015611ed057600a5490670de0b6b3a764000091828102928184041490151715611aca57611ecd91611d9f565b90565b50600090565b600a548015611ed05760095490670de0b6b3a764000091828102928184041490151715611aca57611ecd91611d9f56fea2646970667358221220510ff31f1965ce4f089493ce85b12a4e18aaab430db48b24956d33415094838b64736f6c63430008130033",
  "linkReferences": {},
  "deployedLinkReferences": {}
}