{"contracts/DexOperator.sol":{"DexOperator":{"abi":[{"anonymous":false,"inputs":[{"indexed":true,"internalType":"address","name":"executor","type":"address"},{"indexed":true,"internalType":"address","name":"pool","type":"address"},{"indexed":false,"internalType":"uint256","name":"amountIn","type":"uint256"},{"indexed":false,"internalType":"uint256","name":"amountOut","type":"uint256"}],"name":"OperatorSwapExecuted","type":"event"},{"anonymous":false,"inputs":[{"indexed":true,"internalType":"address","name":"previousOwner","type":"address"},{"indexed":true,"internalType":"address","name":"newOwner","type":"address"}],"name":"OwnershipTransferred","type":"event"},{"inputs":[{"internalType":"address","name":"pool","type":"address"},{"internalType":"uint256","name":"amountIn","type":"uint256"},{"internalType":"uint256","name":"minAmountOut","type":"uint256"},{"internalType":"address","name":"tokenIn","type":"address"}],"name":"executeSwap","outputs":[{"internalType":"uint256","name":"amountOut","type":"uint256"}],"stateMutability":"nonpayable","type":"function"},{"inputs":[],"name":"owner","outputs":[{"internalType":"address","name":"","type":"address"}],"stateMutability":"view","type":"function"},{"inputs":[{"internalType":"address","name":"token","type":"address"},{"internalType":"uint256","name":"amount","type":"uint256"}],"name":"recoverToken","outputs":[],"stateMutability":"nonpayable","type":"function"},{"inputs":[],"name":"renounceOwnership","outputs":[],"stateMutability":"nonpayable","type":"function"},{"inputs":[{"internalType":"address","name":"newOwner","type":"address"}],"name":"transferOwnership","outputs":[],"stateMutability":"nonpayable","type":"function"}],"evm":{"bytecode":{"linkReferences":{},"object":"6080806040523461005b5760008054336001600160a01b0319821681178355916001600160a01b03909116907f8be0079c531659141344cd1fd0a4f28419497f9722a3daafe3b4186f6b6457e09080a36107f190816100618239f35b600080fdfe60406080815260048036101561001457600080fd5b600091823560e01c8063715018a61461054d5780638da5cb5b14610521578063b29a814014610487578063f2fde38b146103c45763f36bf7cf1461005757600080fd5b346103c05760803660031901126103c0576100706105aa565b91602480359060649586359360018060a01b03978886169889870361028d5780891696871561039057861561035e5788516323b872dd60e01b8152338582015230878201526044810188905260209b908c8186818a865af1801561033757610341575b50895163095ea7b360e01b81526001600160a01b038c16868201908152602081018a90528d908290819060400103818a865af180156103375761031a575b5089518c8101916336cd320560e11b8352898983015260443560448301528582015284815260a0810181811067ffffffffffffffff821117610308578b52518691829190828e5af1610161610689565b90156102d9578b818051810103126102d557908b6101819201519a6106e8565b169081156102a2575088875180956370a0823160e01b8252308583015281845afa9182156102985790899291849261025d575b885163a9059cbb60e01b815233918101918252602082019390935291945084918290859082906040015b03925af19081156102525750610225575b50825190815283858201527fe689daeb93072bf3db679c2c86ca6ec76108d2b5615aacce2204b1897458e744833392a351908152f35b61024490863d881161024b575b61023c818361064f565b810190610671565b50386101ef565b503d610232565b8551903d90823e3d90fd5b93948092508391933d8311610291575b610277818361064f565b8101031261028d57516101de93928992906101b4565b8380fd5b503d61026d565b87513d85823e3d90fd5b875162461bcd60e51b81528084018b905260118187015270125b9d985b1a59081d1bdad95b881bdd5d607a1b6044820152fd5b8580fd5b895162461bcd60e51b81528086018d9052600b818901526a14ddd85c0819985a5b195960aa1b60448201528490fd5b634e487b7160e01b8852604187528888fd5b610330908d803d1061024b5761023c818361064f565b5038610111565b8b513d89823e3d90fd5b610357908d803d1061024b5761023c818361064f565b50386100d3565b885162461bcd60e51b8152602081860152600e818801526d125b9d985b1a5908185b5bdd5b9d60921b60448201528390fd5b885162461bcd60e51b8152602081860152600c818801526b125b9d985b1a59081c1bdbdb60a21b60448201528390fd5b8280fd5b5090346103c05760203660031901126103c0576103df6105aa565b906103e86105c5565b6001600160a01b0391821692831561043557505082546001600160a01b0319811683178455167f8be0079c531659141344cd1fd0a4f28419497f9722a3daafe3b4186f6b6457e08380a380f35b906020608492519162461bcd60e51b8352820152602660248201527f4f776e61626c653a206e6577206f776e657220697320746865207a65726f206160448201526564647265737360d01b6064820152fd5b50346103c057806003193601126103c05760206104e8926104a66105aa565b6104ae6105c5565b8554845163a9059cbb60e01b81526001600160a01b0391821693810193845260243560208501529586938492899290918491604090910190565b0393165af190811561051857506104fd575080f35b6105149060203d811161024b5761023c818361064f565b5080f35b513d84823e3d90fd5b838234610549578160031936011261054957905490516001600160a01b039091168152602090f35b5080fd5b83346105a757806003193601126105a7576105666105c5565b80546001600160a01b03198116825581906001600160a01b03167f8be0079c531659141344cd1fd0a4f28419497f9722a3daafe3b4186f6b6457e08280a380f35b80fd5b600435906001600160a01b03821682036105c057565b600080fd5b6000546001600160a01b031633036105d957565b606460405162461bcd60e51b815260206004820152602060248201527f4f776e61626c653a2063616c6c6572206973206e6f7420746865206f776e65726044820152fd5b6040810190811067ffffffffffffffff82111761063957604052565b634e487b7160e01b600052604160045260246000fd5b90601f8019910116810190811067ffffffffffffffff82111761063957604052565b908160209103126105c0575180151581036105c05790565b3d156106c4573d9067ffffffffffffffff821161063957604051916106b8601f8201601f19166020018461064f565b82523d6000602084013e565b606090565b908160209103126105c057516001600160a01b03811681036105c05790565b906040519160008060209485810190630dfe168160e01b82526004815261070e8161061d565b5190845afa9060008061071f610689565b926040518781019063d21220a760e01b82526004815261073e8161061d565b51915afa9161074b610689565b92816107b3575b50610761575b50505050600090565b80516001600160a01b0392839261079392849161078491810189019089016106c9565b169580825183010191016106c9565b1691168281146107ad57146107aa57808080610758565b90565b50905090565b90503861075256fea264697066735822122042d1dc8797b15210d36b0cc15f325ad7daeb42880b5bc8e69e13e695fc5cccba64736f6c63430008130033","opcodes":"PUSH1 0x80 DUP1 PUSH1 0x40 MSTORE CALLVALUE PUSH2 0x5B JUMPI PUSH1 0x0 DUP1 SLOAD CALLER PUSH1 0x1 PUSH1 0x1 PUSH1 0xA0 SHL SUB NOT DUP3 AND DUP2 OR DUP4 SSTORE SWAP2 PUSH1 0x1 PUSH1 0x1 PUSH1 0xA0 SHL SUB SWAP1 SWAP2 AND SWAP1 PUSH32 0x8BE0079C531659141344CD1FD0A4F28419497F9722A3DAAFE3B4186F6B6457E0 SWAP1 DUP1 LOG3 PUSH2 0x7F1 SWAP1 DUP2 PUSH2 0x61 DUP3 CODECOPY RETURN JUMPDEST PUSH1 0x0 DUP1 REVERT INVALID PUSH1 0x40 PUSH1 0x80 DUP2 MSTORE PUSH1 0x4 DUP1 CALLDATASIZE LT ISZERO PUSH2 0x14 JUMPI PUSH1 0x0 DUP1 REVERT JUMPDEST PUSH1 0x0 SWAP2 DUP3 CALLDATALOAD PUSH1 0xE0 SHR DUP1 PUSH4 0x715018A6 EQ PUSH2 0x54D JUMPI DUP1 PUSH4 0x8DA5CB5B EQ PUSH2 0x521 JUMPI DUP1 PUSH4 0xB29A8140 EQ PUSH2 0x487 JUMPI DUP1 PUSH4 0xF2FDE38B EQ PUSH2 0x3C4 JUMPI PUSH4 0xF36BF7CF EQ PUSH2 0x57 JUMPI PUSH1 0x0 DUP1 REVERT JUMPDEST CALLVALUE PUSH2 0x3C0 JUMPI PUSH1 0x80 CALLDATASIZE PUSH1 0x3 NOT ADD SLT PUSH2 0x3C0 JUMPI PUSH2 0x70 PUSH2 0x5AA JUMP JUMPDEST SWAP2 PUSH1 0x24 DUP1 CALLDATALOAD SWAP1 PUSH1 0x64 SWAP6 DUP7 CALLDATALOAD SWAP4 PUSH1 0x1 DUP1 PUSH1 0xA0 SHL SUB SWAP8 DUP9 DUP7 AND SWAP9 DUP10 DUP8 SUB PUSH2 0x28D JUMPI DUP1 DUP10 AND SWAP7 DUP8 ISZERO PUSH2 0x390 JUMPI DUP7 ISZERO PUSH2 0x35E JUMPI DUP9 MLOAD PUSH4 0x23B872DD PUSH1 0xE0 SHL DUP2 MSTORE CALLER DUP6 DUP3 ADD MSTORE ADDRESS DUP8 DUP3 ADD MSTORE PUSH1 0x44 DUP2 ADD DUP9 SWAP1 MSTORE PUSH1 0x20 SWAP12 SWAP1 DUP13 DUP2 DUP7 DUP2 DUP11 DUP7 GAS CALL DUP1 ISZERO PUSH2 0x337 JUMPI PUSH2 0x341 JUMPI JUMPDEST POP DUP10 MLOAD PUSH4 0x95EA7B3 PUSH1 0xE0 SHL DUP2 MSTORE PUSH1 0x1 PUSH1 0x1 PUSH1 0xA0 SHL SUB DUP13 AND DUP7 DUP3 ADD SWAP1 DUP2 MSTORE PUSH1 0x20 DUP2 ADD DUP11 SWAP1 MSTORE DUP14 SWAP1 DUP3 SWAP1 DUP2 SWAP1 PUSH1 0x40 ADD SUB DUP2 DUP11 DUP7 GAS CALL DUP1 ISZERO PUSH2 0x337 JUMPI PUSH2 0x31A JUMPI JUMPDEST POP DUP10 MLOAD DUP13 DUP2 ADD SWAP2 PUSH4 0x36CD3205 PUSH1 0xE1 SHL DUP4 MSTORE DUP10 DUP10 DUP4 ADD MSTORE PUSH1 0x44 CALLDATALOAD PUSH1 0x44 DUP4 ADD MSTORE DUP6 DUP3 ADD MSTORE DUP5 DUP2 MSTORE PUSH1 0xA0 DUP2 ADD DUP2 DUP2 LT PUSH8 0xFFFFFFFFFFFFFFFF DUP3 GT OR PUSH2 0x308 JUMPI DUP12 MSTORE MLOAD DUP7 SWAP2 DUP3 SWAP2 SWAP1 DUP3 DUP15 GAS CALL PUSH2 0x161 PUSH2 0x689 JUMP JUMPDEST SWAP1 ISZERO PUSH2 0x2D9 JUMPI DUP12 DUP2 DUP1 MLOAD DUP2 ADD SUB SLT PUSH2 0x2D5 JUMPI SWAP1 DUP12 PUSH2 0x181 SWAP3 ADD MLOAD SWAP11 PUSH2 0x6E8 JUMP JUMPDEST AND SWAP1 DUP2 ISZERO PUSH2 0x2A2 JUMPI POP DUP9 DUP8 MLOAD DUP1 SWAP6 PUSH4 0x70A08231 PUSH1 0xE0 SHL DUP3 MSTORE ADDRESS DUP6 DUP4 ADD MSTORE DUP2 DUP5 GAS STATICCALL SWAP2 DUP3 ISZERO PUSH2 0x298 JUMPI SWAP1 DUP10 SWAP3 SWAP2 DUP5 SWAP3 PUSH2 0x25D JUMPI JUMPDEST DUP9 MLOAD PUSH4 0xA9059CBB PUSH1 0xE0 SHL DUP2 MSTORE CALLER SWAP2 DUP2 ADD SWAP2 DUP3 MSTORE PUSH1 0x20 DUP3 ADD SWAP4 SWAP1 SWAP4 MSTORE SWAP2 SWAP5 POP DUP5 SWAP2 DUP3 SWAP1 DUP6 SWAP1 DUP3 SWAP1 PUSH1 0x40 ADD JUMPDEST SUB SWAP3 GAS CALL SWAP1 DUP2 ISZERO PUSH2 0x252 JUMPI POP PUSH2 0x225 JUMPI JUMPDEST POP DUP3 MLOAD SWAP1 DUP2 MSTORE DUP4 DUP6 DUP3 ADD MSTORE PUSH32 0xE689DAEB93072BF3DB679C2C86CA6EC76108D2B5615AACCE2204B1897458E744 DUP4 CALLER SWAP3 LOG3 MLOAD SWAP1 DUP2 MSTORE RETURN JUMPDEST PUSH2 0x244 SWAP1 DUP7 RETURNDATASIZE DUP9 GT PUSH2 0x24B JUMPI JUMPDEST PUSH2 0x23C DUP2 DUP4 PUSH2 0x64F JUMP JUMPDEST DUP2 ADD SWAP1 PUSH2 0x671 JUMP JUMPDEST POP CODESIZE PUSH2 0x1EF JUMP JUMPDEST POP RETURNDATASIZE PUSH2 0x232 JUMP JUMPDEST DUP6 MLOAD SWAP1 RETURNDATASIZE SWAP1 DUP3 RETURNDATACOPY RETURNDATASIZE SWAP1 REVERT JUMPDEST SWAP4 SWAP5 DUP1 SWAP3 POP DUP4 SWAP2 SWAP4 RETURNDATASIZE DUP4 GT PUSH2 0x291 JUMPI JUMPDEST PUSH2 0x277 DUP2 DUP4 PUSH2 0x64F JUMP JUMPDEST DUP2 ADD SUB SLT PUSH2 0x28D JUMPI MLOAD PUSH2 0x1DE SWAP4 SWAP3 DUP10 SWAP3 SWAP1 PUSH2 0x1B4 JUMP JUMPDEST DUP4 DUP1 REVERT JUMPDEST POP RETURNDATASIZE PUSH2 0x26D JUMP JUMPDEST DUP8 MLOAD RETURNDATASIZE DUP6 DUP3 RETURNDATACOPY RETURNDATASIZE SWAP1 REVERT JUMPDEST DUP8 MLOAD PUSH3 0x461BCD PUSH1 0xE5 SHL DUP2 MSTORE DUP1 DUP5 ADD DUP12 SWAP1 MSTORE PUSH1 0x11 DUP2 DUP8 ADD MSTORE PUSH17 0x125B9D985B1A59081D1BDAD95B881BDD5D PUSH1 0x7A SHL PUSH1 0x44 DUP3 ADD MSTORE REVERT JUMPDEST DUP6 DUP1 REVERT JUMPDEST DUP10 MLOAD PUSH3 0x461BCD PUSH1 0xE5 SHL DUP2 MSTORE DUP1 DUP7 ADD DUP14 SWAP1 MSTORE PUSH1 0xB DUP2 DUP10 ADD MSTORE PUSH11 0x14DDD85C0819985A5B1959 PUSH1 0xAA SHL PUSH1 0x44 DUP3 ADD MSTORE DUP5 SWAP1 REVERT JUMPDEST PUSH4 0x4E487B71 PUSH1 0xE0 SHL DUP9 MSTORE PUSH1 0x41 DUP8 MSTORE DUP9 DUP9 REVERT JUMPDEST PUSH2 0x330 SWAP1 DUP14 DUP1 RETURNDATASIZE LT PUSH2 0x24B JUMPI PUSH2 0x23C DUP2 DUP4 PUSH2 0x64F JUMP JUMPDEST POP CODESIZE PUSH2 0x111 JUMP JUMPDEST DUP12 MLOAD RETURNDATASIZE DUP10 DUP3 RETURNDATACOPY RETURNDATASIZE SWAP1 REVERT JUMPDEST PUSH2 0x357 SWAP1 DUP14 DUP1 RETURNDATASIZE LT PUSH2 0x24B JUMPI PUSH2 0x23C DUP2 DUP4 PUSH2 0x64F JUMP JUMPDEST POP CODESIZE PUSH2 0xD3 JUMP JUMPDEST DUP9 MLOAD PUSH3 0x461BCD PUSH1 0xE5 SHL DUP2 MSTORE PUSH1 0x20 DUP2 DUP7 ADD MSTORE PUSH1 0xE DUP2 DUP9 ADD MSTORE PUSH14 0x125B9D985B1A5908185B5BDD5B9D PUSH1 0x92 SHL PUSH1 0x44 DUP3 ADD MSTORE DUP4 SWAP1 REVERT JUMPDEST DUP9 MLOAD PUSH3 0x461BCD PUSH1 0xE5 SHL DUP2 MSTORE PUSH1 0x20 DUP2 DUP7 ADD MSTORE PUSH1 0xC DUP2 DUP9 ADD MSTORE PUSH12 0x125B9D985B1A59081C1BDBDB PUSH1 0xA2 SHL PUSH1 0x44 DUP3 ADD MSTORE DUP4 SWAP1 REVERT JUMPDEST DUP3 DUP1 REVERT JUMPDEST POP SWAP1 CALLVALUE PUSH2 0x3C0 JUMPI PUSH1 0x20 CALLDATASIZE PUSH1 0x3 NOT ADD SLT PUSH2 0x3C0 JUMPI PUSH2 0x3DF PUSH2 0x5AA JUMP JUMPDEST SWAP1 PUSH2 0x3E8 PUSH2 0x5C5 JUMP JUMPDEST PUSH1 0x1 PUSH1 0x1 PUSH1 0xA0 SHL SUB SWAP2 DUP3 AND SWAP3 DUP4 ISZERO PUSH2 0x435 JUMPI POP POP DUP3 SLOAD PUSH1 0x1 PUSH1 0x1 PUSH1 0xA0 SHL SUB NOT DUP2 AND DUP4 OR DUP5 SSTORE AND PUSH32 0x8BE0079C531659141344CD1FD0A4F28419497F9722A3DAAFE3B4186F6B6457E0 DUP4 DUP1 LOG3 DUP1 RETURN JUMPDEST SWAP1 PUSH1 0x20 PUSH1 0x84 SWAP3 MLOAD SWAP2 PUSH3 0x461BCD PUSH1 0xE5 SHL DUP4 MSTORE DUP3 ADD MSTORE PUSH1 0x26 PUSH1 0x24 DUP3 ADD MSTORE PUSH32 0x4F776E61626C653A206E6577206F776E657220697320746865207A65726F2061 PUSH1 0x44 DUP3 ADD MSTORE PUSH6 0x646472657373 PUSH1 0xD0 SHL PUSH1 0x64 DUP3 ADD MSTORE REVERT JUMPDEST POP CALLVALUE PUSH2 0x3C0 JUMPI DUP1 PUSH1 0x3 NOT CALLDATASIZE ADD SLT PUSH2 0x3C0 JUMPI PUSH1 0x20 PUSH2 0x4E8 SWAP3 PUSH2 0x4A6 PUSH2 0x5AA JUMP JUMPDEST PUSH2 0x4AE PUSH2 0x5C5 JUMP JUMPDEST DUP6 SLOAD DUP5 MLOAD PUSH4 0xA9059CBB PUSH1 0xE0 SHL DUP2 MSTORE PUSH1 0x1 PUSH1 0x1 PUSH1 0xA0 SHL SUB SWAP2 DUP3 AND SWAP4 DUP2 ADD SWAP4 DUP5 MSTORE PUSH1 0x24 CALLDATALOAD PUSH1 0x20 DUP6 ADD MSTORE SWAP6 DUP7 SWAP4 DUP5 SWAP3 DUP10 SWAP3 SWAP1 SWAP2 DUP5 SWAP2 PUSH1 0x40 SWAP1 SWAP2 ADD SWAP1 JUMP JUMPDEST SUB SWAP4 AND GAS CALL SWAP1 DUP2 ISZERO PUSH2 0x518 JUMPI POP PUSH2 0x4FD JUMPI POP DUP1 RETURN JUMPDEST PUSH2 0x514 SWAP1 PUSH1 0x20 RETURNDATASIZE DUP2 GT PUSH2 0x24B JUMPI PUSH2 0x23C DUP2 DUP4 PUSH2 0x64F JUMP JUMPDEST POP DUP1 RETURN JUMPDEST MLOAD RETURNDATASIZE DUP5 DUP3 RETURNDATACOPY RETURNDATASIZE SWAP1 REVERT JUMPDEST DUP4 DUP3 CALLVALUE PUSH2 0x549 JUMPI DUP2 PUSH1 0x3 NOT CALLDATASIZE ADD SLT PUSH2 0x549 JUMPI SWAP1 SLOAD SWAP1 MLOAD PUSH1 0x1 PUSH1 0x1 PUSH1 0xA0 SHL SUB SWAP1 SWAP2 AND DUP2 MSTORE PUSH1 0x20 SWAP1 RETURN JUMPDEST POP DUP1 REVERT JUMPDEST DUP4 CALLVALUE PUSH2 0x5A7 JUMPI DUP1 PUSH1 0x3 NOT CALLDATASIZE ADD SLT PUSH2 0x5A7 JUMPI PUSH2 0x566 PUSH2 0x5C5 JUMP JUMPDEST DUP1 SLOAD PUSH1 0x1 PUSH1 0x1 PUSH1 0xA0 SHL SUB NOT DUP2 AND DUP3 SSTORE DUP2 SWAP1 PUSH1 0x1 PUSH1 0x1 PUSH1 0xA0 SHL SUB AND PUSH32 0x8BE0079C531659141344CD1FD0A4F28419497F9722A3DAAFE3B4186F6B6457E0 DUP3 DUP1 LOG3 DUP1 RETURN JUMPDEST DUP1 REVERT JUMPDEST PUSH1 0x4 CALLDATALOAD SWAP1 PUSH1 0x1 PUSH1 0x1 PUSH1 0xA0 SHL SUB DUP3 AND DUP3 SUB PUSH2 0x5C0 JUMPI JUMP JUMPDEST PUSH1 0x0 DUP1 REVERT JUMPDEST PUSH1 0x0 SLOAD PUSH1 0x1 PUSH1 0x1 PUSH1 0xA0 SHL SUB AND CALLER SUB PUSH2 0x5D9 JUMPI JUMP JUMPDEST PUSH1 0x64 PUSH1 0x40 MLOAD PUSH3 0x461BCD PUSH1 0xE5 SHL DUP2 MSTORE PUSH1 0x20 PUSH1 0x4 DUP3 ADD MSTORE PUSH1 0x20 PUSH1 0x24 DUP3 ADD MSTORE PUSH32 0x4F776E61626C653A2063616C6C6572206973206E6F7420746865206F776E6572 PUSH1 0x44 DUP3 ADD MSTORE REVERT JUMPDEST PUSH1 0x40 DUP2 ADD SWAP1 DUP2 LT PUSH8 0xFFFFFFFFFFFFFFFF DUP3 GT OR PUSH2 0x639 JUMPI PUSH1 0x40 MSTORE JUMP JUMPDEST PUSH4 0x4E487B71 PUSH1 0xE0 SHL PUSH1 0x0 MSTORE PUSH1 0x41 PUSH1 0x4 MSTORE PUSH1 0x24 PUSH1 0x0 REVERT JUMPDEST SWAP1 PUSH1 0x1F DUP1 NOT SWAP2 ADD AND DUP2 ADD SWAP1 DUP2 LT PUSH8 0xFFFFFFFFFFFFFFFF DUP3 GT OR PUSH2 0x639 JUMPI PUSH1 0x40 MSTORE JUMP JUMPDEST SWAP1 DUP2 PUSH1 0x20 SWAP2 SUB SLT PUSH2 0x5C0 JUMPI MLOAD DUP1 ISZERO ISZERO DUP2 SUB PUSH2 0x5C0 JUMPI SWAP1 JUMP JUMPDEST RETURNDATASIZE ISZERO PUSH2 0x6C4 JUMPI RETURNDATASIZE SWAP1 PUSH8 0xFFFFFFFFFFFFFFFF DUP3 GT PUSH2 0x639 JUMPI PUSH1 0x40 MLOAD SWAP2 PUSH2 0x6B8 PUSH1 0x1F DUP3 ADD PUSH1 0x1F NOT AND PUSH1 0x20 ADD DUP5 PUSH2 0x64F JUMP JUMPDEST DUP3 MSTORE RETURNDATASIZE PUSH1 0x0 PUSH1 0x20 DUP5 ADD RETURNDATACOPY JUMP JUMPDEST PUSH1 0x60 SWAP1 JUMP JUMPDEST SWAP1 DUP2 PUSH1 0x20 SWAP2 SUB SLT PUSH2 0x5C0 JUMPI MLOAD PUSH1 0x1 PUSH1 0x1 PUSH1 0xA0 SHL SUB DUP2 AND DUP2 SUB PUSH2 0x5C0 JUMPI SWAP1 JUMP JUMPDEST SWAP1 PUSH1 0x40 MLOAD SWAP2 PUSH1 0x0 DUP1 PUSH1 0x20 SWAP5 DUP6 DUP2 ADD SWAP1 PUSH4 0xDFE1681 PUSH1 0xE0 SHL DUP3 MSTORE PUSH1 0x4 DUP2 MSTORE PUSH2 0x70E DUP2 PUSH2 0x61D JUMP JUMPDEST MLOAD SWAP1 DUP5 GAS STATICCALL SWAP1 PUSH1 0x0 DUP1 PUSH2 0x71F PUSH2 0x689 JUMP JUMPDEST SWAP3 PUSH1 0x40 MLOAD DUP8 DUP2 ADD SWAP1 PUSH4 0xD21220A7 PUSH1 0xE0 SHL DUP3 MSTORE PUSH1 0x4 DUP2 MSTORE PUSH2 0x73E DUP2 PUSH2 0x61D JUMP JUMPDEST MLOAD SWAP2 GAS STATICCALL SWAP2 PUSH2 0x74B PUSH2 0x689 JUMP JUMPDEST SWAP3 DUP2 PUSH2 0x7B3 JUMPI JUMPDEST POP PUSH2 0x761 JUMPI JUMPDEST POP POP POP POP PUSH1 0x0 SWAP1 JUMP JUMPDEST DUP1 MLOAD PUSH1 0x1 PUSH1 0x1 PUSH1 0xA0 SHL SUB SWAP3 DUP4 SWAP3 PUSH2 0x793 SWAP3 DUP5 SWAP2 PUSH2 0x784 SWAP2 DUP2 ADD DUP10 ADD SWAP1 DUP10 ADD PUSH2 0x6C9 JUMP JUMPDEST AND SWAP6 DUP1 DUP3 MLOAD DUP4 ADD ADD SWAP2 ADD PUSH2 0x6C9 JUMP JUMPDEST AND SWAP2 AND DUP3 DUP2 EQ PUSH2 0x7AD JUMPI EQ PUSH2 0x7AA JUMPI DUP1 DUP1 DUP1 PUSH2 0x758 JUMP JUMPDEST SWAP1 JUMP JUMPDEST POP SWAP1 POP SWAP1 JUMP JUMPDEST SWAP1 POP CODESIZE PUSH2 0x752 JUMP INVALID LOG2 PUSH5 0x6970667358 0x22 SLT KECCAK256 TIMESTAMP 0xD1 0xDC DUP8 SWAP8 0xB1 MSTORE LT 0xD3 PUSH12 0xCC15F325AD7DAEB42880B5B 0xC8 0xE6 SWAP15 SGT 0xE6 SWAP6 0xFC 0x5C 0xCC 0xBA PUSH5 0x736F6C6343 STOP ADDMOD SGT STOP CALLER "},"methodIdentifiers":{"executeSwap(address,uint256,uint256,address)":"f36bf7cf","owner()":"8da5cb5b","recoverToken(address,uint256)":"b29a8140","renounceOwnership()":"715018a6","transferOwnership(address)":"f2fde38b"}}}}}