{"contracts/DexPool.sol":{"DexPool":{"abi":[{"inputs":[{"internalType":"contract IERC20","name":"_token0","type":"address"},{"internalType":"contract IERC20","name":"_token1","type":"address"},{"internalType":"string","name":"name","type":"string"},{"internalType":"string","name":"symbol","type":"string"}],"stateMutability":"nonpayable","type":"constructor"},{"anonymous":false,"inputs":[{"indexed":true,"internalType":"address","name":"owner","type":"address"},{"indexed":true,"internalType":"address","name":"spender","type":"address"},{"indexed":false,"internalType":"uint256","name":"value","type":"uint256"}],"name":"Approval","type":"event"},{"anonymous":false,"inputs":[{"indexed":true,"internalType":"address","name":"provider","type":"address"},{"indexed":false,"internalType":"uint256","name":"amount0","type":"uint256"},{"indexed":false,"internalType":"uint256","name":"amount1","type":"uint256"},{"indexed":false,"internalType":"uint256","name":"liquidity","type":"uint256"}],"name":"LiquidityAdded","type":"event"},{"anonymous":false,"inputs":[{"indexed":true,"internalType":"address","name":"provider","type":"address"},{"indexed":false,"internalType":"uint256","name":"amount0","type":"uint256"},{"indexed":false,"internalType":"uint256","name":"amount1","type":"uint256"},{"indexed":false,"internalType":"uint256","name":"liquidity","type":"uint256"}],"name":"LiquidityRemoved","type":"event"},{"anonymous":false,"inputs":[{"indexed":true,"internalType":"address","name":"previousOwner","type":"address"},{"indexed":true,"internalType":"address","name":"newOwner","type":"address"}],"name":"OwnershipTransferred","type":"event"},{"anonymous":false,"inputs":[{"indexed":false,"internalType":"address","name":"account","type":"address"}],"name":"Paused","type":"event"},{"anonymous":false,"inputs":[{"indexed":true,"internalType":"address","name":"swapper","type":"address"},{"indexed":false,"internalType":"uint256","name":"amountIn","type":"uint256"},{"indexed":false,"internalType":"uint256","name":"amountOut","type":"uint256"},{"indexed":true,"internalType":"address","name":"tokenIn","type":"address"},{"indexed":true,"internalType":"address","name":"tokenOut","type":"address"}],"name":"Swap","type":"event"},{"anonymous":false,"inputs":[{"indexed":true,"internalType":"address","name":"from","type":"address"},{"indexed":true,"internalType":"address","name":"to","type":"address"},{"indexed":false,"internalType":"uint256","name":"value","type":"uint256"}],"name":"Transfer","type":"event"},{"anonymous":false,"inputs":[{"indexed":false,"internalType":"address","name":"account","type":"address"}],"name":"Unpaused","type":"event"},{"inputs":[],"name":"FEE_DENOMINATOR","outputs":[{"internalType":"uint256","name":"","type":"uint256"}],"stateMutability":"view","type":"function"},{"inputs":[],"name":"FEE_PERCENTAGE","outputs":[{"internalType":"uint256","name":"","type":"uint256"}],"stateMutability":"view","type":"function"},{"inputs":[{"internalType":"uint256","name":"amount0","type":"uint256"},{"internalType":"uint256","name":"amount1","type":"uint256"},{"internalType":"uint256","name":"minLiquidity","type":"uint256"}],"name":"addLiquidity","outputs":[{"internalType":"uint256","name":"liquidity","type":"uint256"}],"stateMutability":"nonpayable","type":"function"},{"inputs":[{"internalType":"address","name":"owner","type":"address"},{"internalType":"address","name":"spender","type":"address"}],"name":"allowance","outputs":[{"internalType":"uint256","name":"","type":"uint256"}],"stateMutability":"view","type":"function"},{"inputs":[{"internalType":"address","name":"spender","type":"address"},{"internalType":"uint256","name":"amount","type":"uint256"}],"name":"approve","outputs":[{"internalType":"bool","name":"","type":"bool"}],"stateMutability":"nonpayable","type":"function"},{"inputs":[{"internalType":"address","name":"account","type":"address"}],"name":"balanceOf","outputs":[{"internalType":"uint256","name":"","type":"uint256"}],"stateMutability":"view","type":"function"},{"inputs":[],"name":"decimals","outputs":[{"internalType":"uint8","name":"","type":"uint8"}],"stateMutability":"view","type":"function"},{"inputs":[{"internalType":"address","name":"spender","type":"address"},{"internalType":"uint256","name":"subtractedValue","type":"uint256"}],"name":"decreaseAllowance","outputs":[{"internalType":"bool","name":"","type":"bool"}],"stateMutability":"nonpayable","type":"function"},{"inputs":[],"name":"feeCollected0","outputs":[{"internalType":"uint256","name":"","type":"uint256"}],"stateMutability":"view","type":"function"},{"inputs":[],"name":"feeCollected1","outputs":[{"internalType":"uint256","name":"","type":"uint256"}],"stateMutability":"view","type":"function"},{"inputs":[{"internalType":"uint256","name":"amountOut","type":"uint256"},{"internalType":"contract IERC20","name":"tokenIn","type":"address"}],"name":"getAmountIn","outputs":[{"internalType":"uint256","name":"amountIn","type":"uint256"}],"stateMutability":"view","type":"function"},{"inputs":[{"internalType":"uint256","name":"amountIn","type":"uint256"},{"internalType":"contract IERC20","name":"tokenIn","type":"address"}],"name":"getAmountOut","outputs":[{"internalType":"uint256","name":"amountOut","type":"uint256"}],"stateMutability":"view","type":"function"},{"inputs":[],"name":"getPrice0","outputs":[{"internalType":"uint256","name":"","type":"uint256"}],"stateMutability":"view","type":"function"},{"inputs":[],"name":"getPrice1","outputs":[{"internalType":"uint256","name":"","type":"uint256"}],"stateMutability":"view","type":"function"},{"inputs":[],"name":"getReserves","outputs":[{"internalType":"uint256","name":"","type":"uint256"},{"internalType":"uint256","name":"","type":"uint256"}],"stateMutability":"view","type":"function"},{"inputs":[{"internalType":"address","name":"spender","type":"address"},{"internalType":"uint256","name":"addedValue","type":"uint256"}],"name":"increaseAllowance","outputs":[{"internalType":"bool","name":"","type":"bool"}],"stateMutability":"nonpayable","type":"function"},{"inputs":[],"name":"lastKValue","outputs":[{"internalType":"uint256","name":"","type":"uint256"}],"stateMutability":"view","type":"function"},{"inputs":[],"name":"name","outputs":[{"internalType":"string","name":"","type":"string"}],"stateMutability":"view","type":"function"},{"inputs":[],"name":"owner","outputs":[{"internalType":"address","name":"","type":"address"}],"stateMutability":"view","type":"function"},{"inputs":[],"name":"paused","outputs":[{"internalType":"bool","name":"","type":"bool"}],"stateMutability":"view","type":"function"},{"inputs":[{"internalType":"uint256","name":"liquidity","type":"uint256"},{"internalType":"uint256","name":"minAmount0","type":"uint256"},{"internalType":"uint256","name":"minAmount1","type":"uint256"}],"name":"removeLiquidity","outputs":[{"internalType":"uint256","name":"amount0","type":"uint256"},{"internalType":"uint256","name":"amount1","type":"uint256"}],"stateMutability":"nonpayable","type":"function"},{"inputs":[],"name":"renounceOwnership","outputs":[],"stateMutability":"nonpayable","type":"function"},{"inputs":[],"name":"reserve0","outputs":[{"internalType":"uint256","name":"","type":"uint256"}],"stateMutability":"view","type":"function"},{"inputs":[],"name":"reserve1","outputs":[{"internalType":"uint256","name":"","type":"uint256"}],"stateMutability":"view","type":"function"},{"inputs":[{"internalType":"uint256","name":"amountIn","type":"uint256"},{"internalType":"uint256","name":"minAmountOut","type":"uint256"},{"internalType":"contract IERC20","name":"tokenIn","type":"address"}],"name":"swap","outputs":[{"internalType":"uint256","name":"amountOut","type":"uint256"}],"stateMutability":"nonpayable","type":"function"},{"inputs":[],"name":"symbol","outputs":[{"internalType":"string","name":"","type":"string"}],"stateMutability":"view","type":"function"},{"inputs":[],"name":"token0","outputs":[{"internalType":"contract IERC20","name":"","type":"address"}],"stateMutability":"view","type":"function"},{"inputs":[],"name":"token1","outputs":[{"internalType":"contract IERC20","name":"","type":"address"}],"stateMutability":"view","type":"function"},{"inputs":[],"name":"totalSupply","outputs":[{"internalType":"uint256","name":"","type":"uint256"}],"stateMutability":"view","type":"function"},{"inputs":[{"internalType":"address","name":"to","type":"address"},{"internalType":"uint256","name":"amount","type":"uint256"}],"name":"transfer","outputs":[{"internalType":"bool","name":"","type":"bool"}],"stateMutability":"nonpayable","type":"function"},{"inputs":[{"internalType":"address","name":"from","type":"address"},{"internalType":"address","name":"to","type":"address"},{"internalType":"uint256","name":"amount","type":"uint256"}],"name":"transferFrom","outputs":[{"internalType":"bool","name":"","type":"bool"}],"stateMutability":"nonpayable","type":"function"},{"inputs":[{"internalType":"address","name":"newOwner","type":"address"}],"name":"transferOwnership","outputs":[],"stateMutability":"nonpayable","type":"function"}],"evm":{"bytecode":{"linkReferences":{},"object":"6040608081523462000472576200246190813803806200001f8162000477565b93843982019160808184031262000472576200003b816200049d565b6020916200004b8382016200049d565b8185015190926001600160401b0392909183811162000472578762000072918301620004b2565b96606082015184811162000472576200008c9201620004b2565b95805192808411620003725760038054946001938487811c9716801562000467575b8988101462000451578190601f97888111620003fb575b508990888311600114620003945760009262000388575b505060001982841b1c191690841b1781555b8851918211620003725760049485548481811c9116801562000367575b89821014620003525781811162000307575b50879083116001146200029b5782939495969798996000936200028f575b505082841b92600019911b1c19161783555b6005556006548551936001600160a01b03929091839190338382167f8be0079c531659141344cd1fd0a4f28419497f9722a3daafe3b4186f6b6457e0600080a36001600160a81b0319163360ff60a01b191617600655169384156200025d5750169283156200022a57838314620001e857505060018060a01b031990816007541617600755600854161760085551611f3c9081620005258239f35b845162461bcd60e51b815291820152601860248201527f546f6b656e73206d75737420626520646966666572656e740000000000000000604482015260649150fd5b845162461bcd60e51b815291820152600e60248201526d496e76616c696420746f6b656e3160901b604482015260649150fd5b62461bcd60e51b8152838101869052600e60248201526d0496e76616c696420746f6b656e360941b6044820152606490fd5b0151915038806200013b565b90601f1983169186600052886000209260005b818110620002f157509a84869798999a9b9c10620002d6575b50505050811b0183556200014d565b01519060f884600019921b161c1916905538808080620002c7565b8c830151855593860193918a01918a01620002ae565b86600052886000208280860160051c8201928b871062000348575b0160051c019085905b8281106200033b5750506200011d565b600081550185906200032b565b9250819262000322565b602287634e487b7160e01b6000525260246000fd5b90607f16906200010b565b634e487b7160e01b600052604160045260246000fd5b015190503880620000dc565b90869350601f19831691856000528b6000209260005b8d828210620003e45750508411620003cb575b505050811b018155620000ee565b015160001983861b60f8161c19169055388080620003bd565b8385015186558a97909501949384019301620003aa565b90915083600052896000208880850160051c8201928c861062000447575b918891869594930160051c01915b82811062000437575050620000c5565b6000815585945088910162000427565b9250819262000419565b634e487b7160e01b600052602260045260246000fd5b96607f1696620000ae565b600080fd5b6040519190601f01601f191682016001600160401b038111838210176200037257604052565b51906001600160a01b03821682036200047257565b919080601f84011215620004725782516001600160401b0381116200037257602090620004e8601f8201601f1916830162000477565b92818452828287010111620004725760005b8181106200051057508260009394955001015290565b8581018301518482018401528201620004fa56fe6080604081815260048036101561001557600080fd5b600092833560e01c9081620b46f81461197e5750806306fdde031461188a5780630902f1ac14611865578063095ea7b31461183b5780630dfe1681146118125780631125f13f1461172857806318160ddd146117095780631c20695f146116ea57806323b872dd14611620578063313ce5671461160457806339509351146115b4578063422f1043146110b5578063443cb4bc146110965780635a76f25e146110775780635c975abb1461105057806365f06a63146110315780636d9a640a14610b2457806370a0823114610aed578063715018a614610a90578063857620e1146106225780638da5cb5b146105f957806395d89b41146104f5578063a457c2d714610451578063a9059cbb14610420578063a941ada914610403578063c44418d4146103e4578063d21220a7146103bb578063d73792a91461039e578063dd62ed3e14610355578063e84b8fe514610334578063f140a35a146102505763f2fde38b1461018257600080fd5b3461024c57602036600319011261024c5761019b6119e2565b906101a4611a2d565b6001600160a01b039182169283156101fa575050600654826bffffffffffffffffffffffff60a01b821617600655167f8be0079c531659141344cd1fd0a4f28419497f9722a3daafe3b4186f6b6457e08380a380f35b906020608492519162461bcd60e51b8352820152602660248201527f4f776e61626c653a206e6577206f776e657220697320746865207a65726f206160448201526564647265737360d01b6064820152fd5b8280fd5b509134610331578160031936011261033157823561026c6119fd565b610277821515611e15565b6007546001600160a01b0391821690821681149161029f9183918215610323575b5050611e61565b801561031a57600954905b1561030b576102c56102be600a5493611d75565b9283611d8c565b92612710918281029281840414901517156102f8576020856102f1866102eb8787611abd565b90611d9f565b9051908152f35b634e487b7160e01b815260118652602490fd5b6102c56102be60095493611d75565b600a54906102aa565b600854161490503880610298565b80fd5b5050346103515781600319360112610351576020906102f1611e9d565b5080fd5b505034610351578060031936011261035157806020926103736119e2565b61037b6119fd565b6001600160a01b0391821683526001865283832091168252845220549051908152f35b505034610351578160031936011261035157602090516127108152f35b50503461035157816003193601126103515760085490516001600160a01b039091168152602090f35b505034610351578160031936011261035157602090600d549051908152f35b5050346103515781600319360112610351576020906102f1611ed6565b50503461035157806003193601126103515760209061044a6104406119e2565b6024359033611ae0565b5160018152f35b50823461033157826003193601126103315761046b6119e2565b918360243592338152600160205281812060018060a01b03861682526020522054908282106104a45760208561044a8585038733611c4e565b608490602086519162461bcd60e51b8352820152602560248201527f45524332303a2064656372656173656420616c6c6f77616e63652062656c6f77604482015264207a65726f60d81b6064820152fd5b50919034610351578160031936011261035157805191809380549160019083821c928285169485156105ef575b60209586861081146105dc578589529081156105b85750600114610560575b61055c8787610552828c0383611a85565b5191829182611999565b0390f35b81529295507f8a35acfbc15ff81a39ae7d344fd709f28e8600b4aa8c65c6b64bfe7fe36bd19b5b8284106105a5575050508261055c9461055292820101943880610541565b8054868501880152928601928101610587565b60ff19168887015250505050151560051b83010192506105528261055c3880610541565b634e487b7160e01b845260228352602484fd5b93607f1693610522565b50503461035157816003193601126103515760065490516001600160a01b039091168152602090f35b508290346103515761063336611a13565b9391909261063f611dbf565b8115610a4d57338352602092808452828782205410610a115761066460095484611d8c565b956106876106756002548099611d9f565b97610682600a5487611d8c565b611d9f565b9587106109d757851061099d5733156109505733815280845286812054838110610902578390338352828652038782205582600254036002558087518481527fddf252ad1be2c89b69c2b068fc378daa952ba7f163c4a11628f55a4df523b3ef863392a3600754875163a9059cbb60e01b80825233828601908152602081018a90526001600160a01b0395939192918891839188169082908890829060400103925af180156108a4576108e5575b506008548951918252338383019081526020810189905287918391829003604001908290879089165af180156108db576108ae575b5082600754169088519386856024816370a0823160e01b9687825230878301525afa9485156108a45790879291859661086c575b506024908660095560085416938b519485938492835230908301525afa91821561086157809261082f575b50506107d89181600a55611d8c565b600d557f1dc8bb69df2b8e91fbdcbfcf93d951b3f0000f085a95fe3f7946d6161439245d85518061081d33948789846040919493926060820195825260208201520152565b0390a260016005558351928352820152f35b9091508482813d831161085a575b6108478183611a85565b810103126103315750516107d8886107c9565b503d61083d565b8851903d90823e3d90fd5b838193949297503d831161089d575b6108858183611a85565b81010312610899575193869190602461079e565b8380fd5b503d61087b565b8a513d86823e3d90fd5b6108cd90863d88116108d4575b6108c58183611a85565b810190611d50565b508861076a565b503d6108bb565b89513d85823e3d90fd5b6108fb90873d89116108d4576108c58183611a85565b5089610735565b875162461bcd60e51b8152808401869052602260248201527f45524332303a206275726e20616d6f756e7420657863656564732062616c616e604482015261636560f01b6064820152608490fd5b865162461bcd60e51b8152808301859052602160248201527f45524332303a206275726e2066726f6d20746865207a65726f206164647265736044820152607360f81b6064820152608490fd5b865162461bcd60e51b81528083018590526014602482015273496e73756666696369656e7420616d6f756e743160601b6044820152606490fd5b875162461bcd60e51b815280840186905260146024820152730496e73756666696369656e7420616d6f756e74360641b6044820152606490fd5b865162461bcd60e51b81528083018590526016602482015275496e73756666696369656e74206c697175696469747960501b6044820152606490fd5b606490602087519162461bcd60e51b8352820152602060248201527f4c6971756964697479206d7573742062652067726561746572207468616e20306044820152fd5b8334610331578060031936011261033157610aa9611a2d565b600680546001600160a01b0319811690915581906001600160a01b03167f8be0079c531659141344cd1fd0a4f28419497f9722a3daafe3b4186f6b6457e08280a380f35b5050346103515760203660031901126103515760209181906001600160a01b03610b156119e2565b16815280845220549051908152f35b50903461024c57606036600319011261024c576001600160a01b039160443583811690823590829003610e9e57610b59611dbf565b610b64811515611e15565b84600754169283831493848015611024575b610b7f90611e61565b841561101e57508560085416965b841561101557600954945b1561100b5786600a54985b16948651926370a0823160e01b91828552308286015260209a6024958c8188818d5afa8015610ea957908d91610fe2575b505089516323b872dd60e01b815233848201908152306020820152604081018990528d90829081906060010381898d5af18015610ea957610fc5575b50610c24610c1d88611d75565b9182611d8c565b9161271090818102918183041490151715610fb357610c4792916102eb91611abd565b9884358a10610f71578915610f3757848b8260075416808a14600014610ee0578b519283809288825230888301525afa908115610e12578591610eb3575b505b895184815230848201528c8188818d5afa908115610ea957908c918791610e72575b50610cbe9291610cb891611d68565b90611d8c565b600d5411610e3957885163a9059cbb60e01b815233838201908152602081018c90528c90829081906040010381888d5af18015610e125790869291610e1c575b508b81600754168b519788809288825230888301525afa958615610e1257908c9392918697610dd9575b508660095560085416938a519485938492835230908301525afa918215610dce578092610d9c575b5050610d5f9181600a55611d8c565b600d55835190815284868201527f053d794b2310b8d186a24ae24a65ee066983a52a6efa6bd3df09a7601a3cb4f3843392a4600160055551908152f35b9091508882813d8311610dc7575b610db48183611a85565b81010312610331575051610d5f38610d50565b503d610daa565b8751903d90823e3d90fd5b84819394959298503d8311610e0b575b610df38183611a85565b81010312610e0757908b9291519538610d28565b8480fd5b503d610de9565b8a513d87823e3d90fd5b610e32908d803d106108d4576108c58183611a85565b5038610cfe565b885162461bcd60e51b81528083018c90526014818701527312c81a5b9d985c9a585b9d081d9a5bdb185d195960621b6044820152606490fd5b8092508e8092503d8311610ea2575b610e8b8183611a85565b81010312610e9e57518b90610cbe610ca9565b8580fd5b503d610e81565b8b513d88823e3d90fd5b90508b81813d8311610ed9575b610eca8183611a85565b81010312610e07575138610c85565b503d610ec0565b5082600854168b519283809288825230888301525afa908115610e12578591610f0a575b50610c87565b90508b81813d8311610f30575b610f218183611a85565b81010312610e07575138610f04565b503d610f17565b885162461bcd60e51b81528083018c905260158187015274125b9d985b1a59081bdd5d1c1d5d08185b5bdd5b9d605a1b6044820152606490fd5b885162461bcd60e51b81528083018c9052601a818701527f496e73756666696369656e74206f757470757420616d6f756e740000000000006044820152606490fd5b634e487b7160e01b8652601184528686fd5b610fdb908d803d106108d4576108c58183611a85565b5038610c10565b813d8311611004575b610ff58183611a85565b81010312610e07578b38610bd4565b503d610feb565b8660095498610ba3565b600a5494610b98565b96610b8d565b5060085487168414610b76565b505034610351578160031936011261035157602090600c549051908152f35b50503461035157816003193601126103515760209060ff60065460a01c1690519015158152f35b505034610351578160031936011261035157602090600a549051908152f35b5050346103515781600319360112610351576020906009549051908152f35b50903461024c576110c536611a13565b93906110cf611dbf565b821515806115ab575b156115685760075484516370a0823160e01b8082523085830152602098602496919490936001600160a01b0392908316908b858a81855afa94851561155e57908695949392918a9795611522575b508c84600854168c519b8c80928c82528d30908301525afa998a15610ea957869a6114e9575b508a516323b872dd60e01b80825233828c0190815230602082015260408101939093529290918e91839182908a90829060600103925af18015610ea95789878f946111cb96948f946114cc575b506008549351908152339281019283523060208401526040830194909452929485939287169284929091839160600190565b03925af180156114a55790859392916114af575b508a81600754168a51968780928a8252308c8301525afa9485156114a557908b918596611474575b506008541695838a51809881938252308b8301525afa94851561146a578395611439575b506112396112409185611d68565b9685611d68565b946002549182156000146113f6576112588789611d8c565b8460038211156113e857508060019080821c8281018091116113d65791905b8383106113b6575050505b995b8a10611374573315611332575050927f64b83944e79c3ce8d4c297411de637c3e102d064677aac0c163976ebdcd6f50e949261130f926112c58a8097611abd565b600255338152808b528881208681540190558851908682527fddf252ad1be2c89b69c2b068fc378daa952ba7f163c4a11628f55a4df523b3ef8c3393a38060095581600a55611d8c565b600d558451938452602084015260408301523391606090a2600160055551908152f35b885162461bcd60e51b81529182018b9052601f908201527f45524332303a206d696e7420746f20746865207a65726f2061646472657373006044820152606490fd5b885162461bcd60e51b81529182018b9052601d908201527f496e73756666696369656e74206c6971756964697479206d696e7465640000006044820152606490fd5b909192506113cd836113c88184611d9f565b611abd565b821c9190611277565b634e487b7160e01b8852601186528488fd5b901561128257506001611282565b61140c611403848a611d8c565b60095490611d9f565b611422611419858a611d8c565b600a5490611d9f565b8082101561143257505b99611284565b905061142c565b9094508981813d8311611463575b6114518183611a85565b8101031261024c57519361123961122b565b503d611447565b88513d85823e3d90fd5b8281939297503d831161149e575b61148c8183611a85565b81010312610899578a90519438611207565b503d611482565b89513d86823e3d90fd5b6114c5908c8d3d106108d4576108c58183611a85565b50386111df565b6114e290873d89116108d4576108c58183611a85565b5038611199565b90919c809c9b9a5081813d831161151b575b6115058183611a85565b81010312610e9e57519a9b999a9899908c61114c565b503d6114fb565b8d80929798508193949596503d8311611557575b6115408183611a85565b81010312610e9e5790889594939291519338611126565b503d611536565b8a513d88823e3d90fd5b835162461bcd60e51b8152602081840152601e60248201527f416d6f756e7473206d7573742062652067726561746572207468616e203000006044820152606490fd5b508015156110d8565b50503461035157806003193601126103515761044a6020926115fd6115d76119e2565b338352600186528483206001600160a01b03821684528652918490205460243590611abd565b9033611c4e565b5050346103515781600319360112610351576020905160128152f35b508290346103515760603660031901126103515761163c6119e2565b6116446119fd565b91846044359460018060a01b03841681526001602052818120338252602052205490600019820361167e575b60208661044a878787611ae0565b8482106116a7575091839161169c6020969561044a95033383611c4e565b919394819350611670565b606490602087519162461bcd60e51b8352820152601d60248201527f45524332303a20696e73756666696369656e7420616c6c6f77616e63650000006044820152fd5b505034610351578160031936011261035157602090600b549051908152f35b5050346103515781600319360112610351576020906002549051908152f35b5091903461035157806003193601126103515782356117456119fd565b90611751811515611e15565b6007546001600160a01b039283169083168114926117789184918215610323575050611e61565b811561180957600954915b156117fc5761179581600a5493611d8c565b91612710928381029381850414901517156117e9576117bb6117c093926102eb92611d68565b611d75565b91600183018093116117d6576020838351908152f35b634e487b7160e01b815260118452602490fd5b634e487b7160e01b855260118652602485fd5b6117958160095493611d8c565b600a5491611783565b50503461035157816003193601126103515760075490516001600160a01b039091168152602090f35b50503461035157806003193601126103515760209061044a61185b6119e2565b6024359033611c4e565b82843461033157806003193601126103315750600954600a5482519182526020820152f35b50903461024c578260031936011261024c57805191836003549060019082821c928281168015611974575b6020958686108214611961575084885290811561193f57506001146118e6575b61055c8686610552828b0383611a85565b929550600383527fc2575a0e9e593c00f959f8c92f12db2869c3395a3b0502d05e2516446f71f85b5b82841061192c575050508261055c946105529282010194386118d5565b805486850188015292860192810161190f565b60ff191687860152505050151560051b83010192506105528261055c386118d5565b634e487b7160e01b845260229052602483fd5b93607f16936118b5565b84903461035157816003193601126103515780601e60209252f35b6020808252825181830181905290939260005b8281106119ce57505060409293506000838284010152601f8019910116010190565b8181018601518482016040015285016119ac565b600435906001600160a01b03821682036119f857565b600080fd5b602435906001600160a01b03821682036119f857565b60609060031901126119f857600435906024359060443590565b6006546001600160a01b03163303611a4157565b606460405162461bcd60e51b815260206004820152602060248201527f4f776e61626c653a2063616c6c6572206973206e6f7420746865206f776e65726044820152fd5b90601f8019910116810190811067ffffffffffffffff821117611aa757604052565b634e487b7160e01b600052604160045260246000fd5b91908201809211611aca57565b634e487b7160e01b600052601160045260246000fd5b6001600160a01b03908116918215611bfb5716918215611baa57600082815280602052604081205491808310611b5657604082827fddf252ad1be2c89b69c2b068fc378daa952ba7f163c4a11628f55a4df523b3ef958760209652828652038282205586815220818154019055604051908152a3565b60405162461bcd60e51b815260206004820152602660248201527f45524332303a207472616e7366657220616d6f756e7420657863656564732062604482015265616c616e636560d01b6064820152608490fd5b60405162461bcd60e51b815260206004820152602360248201527f45524332303a207472616e7366657220746f20746865207a65726f206164647260448201526265737360e81b6064820152608490fd5b60405162461bcd60e51b815260206004820152602560248201527f45524332303a207472616e736665722066726f6d20746865207a65726f206164604482015264647265737360d81b6064820152608490fd5b6001600160a01b03908116918215611cff5716918215611caf5760207f8c5be1e5ebec7d5bd14f71427d1e84f3dd0314c0f7b2291e5b200ac8c7c3b925918360005260018252604060002085600052825280604060002055604051908152a3565b60405162461bcd60e51b815260206004820152602260248201527f45524332303a20617070726f766520746f20746865207a65726f206164647265604482015261737360f01b6064820152608490fd5b60405162461bcd60e51b8152602060048201526024808201527f45524332303a20617070726f76652066726f6d20746865207a65726f206164646044820152637265737360e01b6064820152608490fd5b908160209103126119f8575180151581036119f85790565b91908203918211611aca57565b906126f291828102928184041490151715611aca57565b81810292918115918404141715611aca57565b8115611da9570490565b634e487b7160e01b600052601260045260246000fd5b600260055414611dd0576002600555565b60405162461bcd60e51b815260206004820152601f60248201527f5265656e7472616e637947756172643a207265656e7472616e742063616c6c006044820152606490fd5b15611e1c57565b60405162461bcd60e51b815260206004820152601d60248201527f416d6f756e74206d7573742062652067726561746572207468616e20300000006044820152606490fd5b15611e6857565b60405162461bcd60e51b815260206004820152600d60248201526c24b73b30b634b2103a37b5b2b760991b6044820152606490fd5b6009548015611ed057600a5490670de0b6b3a764000091828102928184041490151715611aca57611ecd91611d9f565b90565b50600090565b600a548015611ed05760095490670de0b6b3a764000091828102928184041490151715611aca57611ecd91611d9f56fea2646970667358221220510ff31f1965ce4f089493ce85b12a4e18aaab430db48b24956d33415094838b64736f6c63430008130033","opcodes":"PUSH1 0x40 PUSH1 0x80 DUP2 MSTORE CALLVALUE PUSH3 0x472 JUMPI PUSH3 0x2461 SWAP1 DUP2 CODESIZE SUB DUP1 PUSH3 0x1F DUP2 PUSH3 0x477 JUMP JUMPDEST SWAP4 DUP5 CODECOPY DUP3 ADD SWAP2 PUSH1 0x80 DUP2 DUP5 SUB SLT PUSH3 0x472 JUMPI PUSH3 0x3B DUP2 PUSH3 0x49D JUMP JUMPDEST PUSH1 0x20 SWAP2 PUSH3 0x4B DUP4 DUP3 ADD PUSH3 0x49D JUMP JUMPDEST DUP2 DUP6 ADD MLOAD SWAP1 SWAP3 PUSH1 0x1 PUSH1 0x1 PUSH1 0x40 SHL SUB SWAP3 SWAP1 SWAP2 DUP4 DUP2 GT PUSH3 0x472 JUMPI DUP8 PUSH3 0x72 SWAP2 DUP4 ADD PUSH3 0x4B2 JUMP JUMPDEST SWAP7 PUSH1 0x60 DUP3 ADD MLOAD DUP5 DUP2 GT PUSH3 0x472 JUMPI PUSH3 0x8C SWAP3 ADD PUSH3 0x4B2 JUMP JUMPDEST SWAP6 DUP1 MLOAD SWAP3 DUP1 DUP5 GT PUSH3 0x372 JUMPI PUSH1 0x3 DUP1 SLOAD SWAP5 PUSH1 0x1 SWAP4 DUP5 DUP8 DUP2 SHR SWAP8 AND DUP1 ISZERO PUSH3 0x467 JUMPI JUMPDEST DUP10 DUP9 LT EQ PUSH3 0x451 JUMPI DUP2 SWAP1 PUSH1 0x1F SWAP8 DUP9 DUP2 GT PUSH3 0x3FB JUMPI JUMPDEST POP DUP10 SWAP1 DUP9 DUP4 GT PUSH1 0x1 EQ PUSH3 0x394 JUMPI PUSH1 0x0 SWAP3 PUSH3 0x388 JUMPI JUMPDEST POP POP PUSH1 0x0 NOT DUP3 DUP5 SHL SHR NOT AND SWAP1 DUP5 SHL OR DUP2 SSTORE JUMPDEST DUP9 MLOAD SWAP2 DUP3 GT PUSH3 0x372 JUMPI PUSH1 0x4 SWAP5 DUP6 SLOAD DUP5 DUP2 DUP2 SHR SWAP2 AND DUP1 ISZERO PUSH3 0x367 JUMPI JUMPDEST DUP10 DUP3 LT EQ PUSH3 0x352 JUMPI DUP2 DUP2 GT PUSH3 0x307 JUMPI JUMPDEST POP DUP8 SWAP1 DUP4 GT PUSH1 0x1 EQ PUSH3 0x29B JUMPI DUP3 SWAP4 SWAP5 SWAP6 SWAP7 SWAP8 SWAP9 SWAP10 PUSH1 0x0 SWAP4 PUSH3 0x28F JUMPI JUMPDEST POP POP DUP3 DUP5 SHL SWAP3 PUSH1 0x0 NOT SWAP2 SHL SHR NOT AND OR DUP4 SSTORE JUMPDEST PUSH1 0x5 SSTORE PUSH1 0x6 SLOAD DUP6 MLOAD SWAP4 PUSH1 0x1 PUSH1 0x1 PUSH1 0xA0 SHL SUB SWAP3 SWAP1 SWAP2 DUP4 SWAP2 SWAP1 CALLER DUP4 DUP3 AND PUSH32 0x8BE0079C531659141344CD1FD0A4F28419497F9722A3DAAFE3B4186F6B6457E0 PUSH1 0x0 DUP1 LOG3 PUSH1 0x1 PUSH1 0x1 PUSH1 0xA8 SHL SUB NOT AND CALLER PUSH1 0xFF PUSH1 0xA0 SHL NOT AND OR PUSH1 0x6 SSTORE AND SWAP4 DUP5 ISZERO PUSH3 0x25D JUMPI POP AND SWAP3 DUP4 ISZERO PUSH3 0x22A JUMPI DUP4 DUP4 EQ PUSH3 0x1E8 JUMPI POP POP PUSH1 0x1 DUP1 PUSH1 0xA0 SHL SUB NOT SWAP1 DUP2 PUSH1 0x7 SLOAD AND OR PUSH1 0x7 SSTORE PUSH1 0x8 SLOAD AND OR PUSH1 0x8 SSTORE MLOAD PUSH2 0x1F3C SWAP1 DUP2 PUSH3 0x525 DUP3 CODECOPY RETURN JUMPDEST DUP5 MLOAD PUSH3 0x461BCD PUSH1 0xE5 SHL DUP2 MSTORE SWAP2 DUP3 ADD MSTORE PUSH1 0x18 PUSH1 0x24 DUP3 ADD MSTORE PUSH32 0x546F6B656E73206D75737420626520646966666572656E740000000000000000 PUSH1 0x44 DUP3 ADD MSTORE PUSH1 0x64 SWAP2 POP REVERT JUMPDEST DUP5 MLOAD PUSH3 0x461BCD PUSH1 0xE5 SHL DUP2 MSTORE SWAP2 DUP3 ADD MSTORE PUSH1 0xE PUSH1 0x24 DUP3 ADD MSTORE PUSH14 0x496E76616C696420746F6B656E31 PUSH1 0x90 SHL PUSH1 0x44 DUP3 ADD MSTORE PUSH1 0x64 SWAP2 POP REVERT JUMPDEST PUSH3 0x461BCD PUSH1 0xE5 SHL DUP2 MSTORE DUP4 DUP2 ADD DUP7 SWAP1 MSTORE PUSH1 0xE PUSH1 0x24 DUP3 ADD MSTORE PUSH14 0x496E76616C696420746F6B656E3 PUSH1 0x94 SHL PUSH1 0x44 DUP3 ADD MSTORE PUSH1 0x64 SWAP1 REVERT JUMPDEST ADD MLOAD SWAP2 POP CODESIZE DUP1 PUSH3 0x13B JUMP JUMPDEST SWAP1 PUSH1 0x1F NOT DUP4 AND SWAP2 DUP7 PUSH1 0x0 MSTORE DUP9 PUSH1 0x0 KECCAK256 SWAP3 PUSH1 0x0 JUMPDEST DUP2 DUP2 LT PUSH3 0x2F1 JUMPI POP SWAP11 DUP5 DUP7 SWAP8 SWAP9 SWAP10 SWAP11 SWAP12 SWAP13 LT PUSH3 0x2D6 JUMPI JUMPDEST POP POP POP POP DUP2 SHL ADD DUP4 SSTORE PUSH3 0x14D JUMP JUMPDEST ADD MLOAD SWAP1 PUSH1 0xF8 DUP5 PUSH1 0x0 NOT SWAP3 SHL AND SHR NOT AND SWAP1 SSTORE CODESIZE DUP1 DUP1 DUP1 PUSH3 0x2C7 JUMP JUMPDEST DUP13 DUP4 ADD MLOAD DUP6 SSTORE SWAP4 DUP7 ADD SWAP4 SWAP2 DUP11 ADD SWAP2 DUP11 ADD PUSH3 0x2AE JUMP JUMPDEST DUP7 PUSH1 0x0 MSTORE DUP9 PUSH1 0x0 KECCAK256 DUP3 DUP1 DUP7 ADD PUSH1 0x5 SHR DUP3 ADD SWAP3 DUP12 DUP8 LT PUSH3 0x348 JUMPI JUMPDEST ADD PUSH1 0x5 SHR ADD SWAP1 DUP6 SWAP1 JUMPDEST DUP3 DUP2 LT PUSH3 0x33B JUMPI POP POP PUSH3 0x11D JUMP JUMPDEST PUSH1 0x0 DUP2 SSTORE ADD DUP6 SWAP1 PUSH3 0x32B JUMP JUMPDEST SWAP3 POP DUP2 SWAP3 PUSH3 0x322 JUMP JUMPDEST PUSH1 0x22 DUP8 PUSH4 0x4E487B71 PUSH1 0xE0 SHL PUSH1 0x0 MSTORE MSTORE PUSH1 0x24 PUSH1 0x0 REVERT JUMPDEST SWAP1 PUSH1 0x7F AND SWAP1 PUSH3 0x10B JUMP JUMPDEST PUSH4 0x4E487B71 PUSH1 0xE0 SHL PUSH1 0x0 MSTORE PUSH1 0x41 PUSH1 0x4 MSTORE PUSH1 0x24 PUSH1 0x0 REVERT JUMPDEST ADD MLOAD SWAP1 POP CODESIZE DUP1 PUSH3 0xDC JUMP JUMPDEST SWAP1 DUP7 SWAP4 POP PUSH1 0x1F NOT DUP4 AND SWAP2 DUP6 PUSH1 0x0 MSTORE DUP12 PUSH1 0x0 KECCAK256 SWAP3 PUSH1 0x0 JUMPDEST DUP14 DUP3 DUP3 LT PUSH3 0x3E4 JUMPI POP POP DUP5 GT PUSH3 0x3CB JUMPI JUMPDEST POP POP POP DUP2 SHL ADD DUP2 SSTORE PUSH3 0xEE JUMP JUMPDEST ADD MLOAD PUSH1 0x0 NOT DUP4 DUP7 SHL PUSH1 0xF8 AND SHR NOT AND SWAP1 SSTORE CODESIZE DUP1 DUP1 PUSH3 0x3BD JUMP JUMPDEST DUP4 DUP6 ADD MLOAD DUP7 SSTORE DUP11 SWAP8 SWAP1 SWAP6 ADD SWAP5 SWAP4 DUP5 ADD SWAP4 ADD PUSH3 0x3AA JUMP JUMPDEST SWAP1 SWAP2 POP DUP4 PUSH1 0x0 MSTORE DUP10 PUSH1 0x0 KECCAK256 DUP9 DUP1 DUP6 ADD PUSH1 0x5 SHR DUP3 ADD SWAP3 DUP13 DUP7 LT PUSH3 0x447 JUMPI JUMPDEST SWAP2 DUP9 SWAP2 DUP7 SWAP6 SWAP5 SWAP4 ADD PUSH1 0x5 SHR ADD SWAP2 JUMPDEST DUP3 DUP2 LT PUSH3 0x437 JUMPI POP POP PUSH3 0xC5 JUMP JUMPDEST PUSH1 0x0 DUP2 SSTORE DUP6 SWAP5 POP DUP9 SWAP2 ADD PUSH3 0x427 JUMP JUMPDEST SWAP3 POP DUP2 SWAP3 PUSH3 0x419 JUMP JUMPDEST PUSH4 0x4E487B71 PUSH1 0xE0 SHL PUSH1 0x0 MSTORE PUSH1 0x22 PUSH1 0x4 MSTORE PUSH1 0x24 PUSH1 0x0 REVERT JUMPDEST SWAP7 PUSH1 0x7F AND SWAP7 PUSH3 0xAE JUMP JUMPDEST PUSH1 0x0 DUP1 REVERT JUMPDEST PUSH1 0x40 MLOAD SWAP2 SWAP1 PUSH1 0x1F ADD PUSH1 0x1F NOT AND DUP3 ADD PUSH1 0x1 PUSH1 0x1 PUSH1 0x40 SHL SUB DUP2 GT DUP4 DUP3 LT OR PUSH3 0x372 JUMPI PUSH1 0x40 MSTORE JUMP JUMPDEST MLOAD SWAP1 PUSH1 0x1 PUSH1 0x1 PUSH1 0xA0 SHL SUB DUP3 AND DUP3 SUB PUSH3 0x472 JUMPI JUMP JUMPDEST SWAP2 SWAP1 DUP1 PUSH1 0x1F DUP5 ADD SLT ISZERO PUSH3 0x472 JUMPI DUP3 MLOAD PUSH1 0x1 PUSH1 0x1 PUSH1 0x40 SHL SUB DUP2 GT PUSH3 0x372 JUMPI PUSH1 0x20 SWAP1 PUSH3 0x4E8 PUSH1 0x1F DUP3 ADD PUSH1 0x1F NOT AND DUP4 ADD PUSH3 0x477 JUMP JUMPDEST SWAP3 DUP2 DUP5 MSTORE DUP3 DUP3 DUP8 ADD ADD GT PUSH3 0x472 JUMPI PUSH1 0x0 JUMPDEST DUP2 DUP2 LT PUSH3 0x510 JUMPI POP DUP3 PUSH1 0x0 SWAP4 SWAP5 SWAP6 POP ADD ADD MSTORE SWAP1 JUMP JUMPDEST DUP6 DUP2 ADD DUP4 ADD MLOAD DUP5 DUP3 ADD DUP5 ADD MSTORE DUP3 ADD PUSH3 0x4FA JUMP INVALID PUSH1 0x80 PUSH1 0x40 DUP2 DUP2 MSTORE PUSH1 0x4 DUP1 CALLDATASIZE LT ISZERO PUSH2 0x15 JUMPI PUSH1 0x0 DUP1 REVERT JUMPDEST PUSH1 0x0 SWAP3 DUP4 CALLDATALOAD PUSH1 0xE0 SHR SWAP1 DUP2 PUSH3 0xB46F8 EQ PUSH2 0x197E JUMPI POP DUP1 PUSH4 0x6FDDE03 EQ PUSH2 0x188A JUMPI DUP1 PUSH4 0x902F1AC EQ PUSH2 0x1865 JUMPI DUP1 PUSH4 0x95EA7B3 EQ PUSH2 0x183B JUMPI DUP1 PUSH4 0xDFE1681 EQ PUSH2 0x1812 JUMPI DUP1 PUSH4 0x1125F13F EQ PUSH2 0x1728 JUMPI DUP1 PUSH4 0x18160DDD EQ PUSH2 0x1709 JUMPI DUP1 PUSH4 0x1C20695F EQ PUSH2 0x16EA JUMPI DUP1 PUSH4 0x23B872DD EQ PUSH2 0x1620 JUMPI DUP1 PUSH4 0x313CE567 EQ PUSH2 0x1604 JUMPI DUP1 PUSH4 0x39509351 EQ PUSH2 0x15B4 JUMPI DUP1 PUSH4 0x422F1043 EQ PUSH2 0x10B5 JUMPI DUP1 PUSH4 0x443CB4BC EQ PUSH2 0x1096 JUMPI DUP1 PUSH4 0x5A76F25E EQ PUSH2 0x1077 JUMPI DUP1 PUSH4 0x5C975ABB EQ PUSH2 0x1050 JUMPI DUP1 PUSH4 0x65F06A63 EQ PUSH2 0x1031 JUMPI DUP1 PUSH4 0x6D9A640A EQ PUSH2 0xB24 JUMPI DUP1 PUSH4 0x70A08231 EQ PUSH2 0xAED JUMPI DUP1 PUSH4 0x715018A6 EQ PUSH2 0xA90 JUMPI DUP1 PUSH4 0x857620E1 EQ PUSH2 0x622 JUMPI DUP1 PUSH4 0x8DA5CB5B EQ PUSH2 0x5F9 JUMPI DUP1 PUSH4 0x95D89B41 EQ PUSH2 0x4F5 JUMPI DUP1 PUSH4 0xA457C2D7 EQ PUSH2 0x451 JUMPI DUP1 PUSH4 0xA9059CBB EQ PUSH2 0x420 JUMPI DUP1 PUSH4 0xA941ADA9 EQ PUSH2 0x403 JUMPI DUP1 PUSH4 0xC44418D4 EQ PUSH2 0x3E4 JUMPI DUP1 PUSH4 0xD21220A7 EQ PUSH2 0x3BB JUMPI DUP1 PUSH4 0xD73792A9 EQ PUSH2 0x39E JUMPI DUP1 PUSH4 0xDD62ED3E EQ PUSH2 0x355 JUMPI DUP1 PUSH4 0xE84B8FE5 EQ PUSH2 0x334 JUMPI DUP1 PUSH4 0xF140A35A EQ PUSH2 0x250 JUMPI PUSH4 0xF2FDE38B EQ PUSH2 0x182 JUMPI PUSH1 0x0 DUP1 REVERT JUMPDEST CALLVALUE PUSH2 0x24C JUMPI PUSH1 0x20 CALLDATASIZE PUSH1 0x3 NOT ADD SLT PUSH2 0x24C JUMPI PUSH2 0x19B PUSH2 0x19E2 JUMP JUMPDEST SWAP1 PUSH2 0x1A4 PUSH2 0x1A2D JUMP JUMPDEST PUSH1 0x1 PUSH1 0x1 PUSH1 0xA0 SHL SUB SWAP2 DUP3 AND SWAP3 DUP4 ISZERO PUSH2 0x1FA JUMPI POP POP PUSH1 0x6 SLOAD DUP3 PUSH12 0xFFFFFFFFFFFFFFFFFFFFFFFF PUSH1 0xA0 SHL DUP3 AND OR PUSH1 0x6 SSTORE AND PUSH32 0x8BE0079C531659141344CD1FD0A4F28419497F9722A3DAAFE3B4186F6B6457E0 DUP4 DUP1 LOG3 DUP1 RETURN JUMPDEST SWAP1 PUSH1 0x20 PUSH1 0x84 SWAP3 MLOAD SWAP2 PUSH3 0x461BCD PUSH1 0xE5 SHL DUP4 MSTORE DUP3 ADD MSTORE PUSH1 0x26 PUSH1 0x24 DUP3 ADD MSTORE PUSH32 0x4F776E61626C653A206E6577206F776E657220697320746865207A65726F2061 PUSH1 0x44 DUP3 ADD MSTORE PUSH6 0x646472657373 PUSH1 0xD0 SHL PUSH1 0x64 DUP3 ADD MSTORE REVERT JUMPDEST DUP3 DUP1 REVERT JUMPDEST POP SWAP2 CALLVALUE PUSH2 0x331 JUMPI DUP2 PUSH1 0x3 NOT CALLDATASIZE ADD SLT PUSH2 0x331 JUMPI DUP3 CALLDATALOAD PUSH2 0x26C PUSH2 0x19FD JUMP JUMPDEST PUSH2 0x277 DUP3 ISZERO ISZERO PUSH2 0x1E15 JUMP JUMPDEST PUSH1 0x7 SLOAD PUSH1 0x1 PUSH1 0x1 PUSH1 0xA0 SHL SUB SWAP2 DUP3 AND SWAP1 DUP3 AND DUP2 EQ SWAP2 PUSH2 0x29F SWAP2 DUP4 SWAP2 DUP3 ISZERO PUSH2 0x323 JUMPI JUMPDEST POP POP PUSH2 0x1E61 JUMP JUMPDEST DUP1 ISZERO PUSH2 0x31A JUMPI PUSH1 0x9 SLOAD SWAP1 JUMPDEST ISZERO PUSH2 0x30B JUMPI PUSH2 0x2C5 PUSH2 0x2BE PUSH1 0xA SLOAD SWAP4 PUSH2 0x1D75 JUMP JUMPDEST SWAP3 DUP4 PUSH2 0x1D8C JUMP JUMPDEST SWAP3 PUSH2 0x2710 SWAP2 DUP3 DUP2 MUL SWAP3 DUP2 DUP5 DIV EQ SWAP1 ISZERO OR ISZERO PUSH2 0x2F8 JUMPI PUSH1 0x20 DUP6 PUSH2 0x2F1 DUP7 PUSH2 0x2EB DUP8 DUP8 PUSH2 0x1ABD JUMP JUMPDEST SWAP1 PUSH2 0x1D9F JUMP JUMPDEST SWAP1 MLOAD SWAP1 DUP2 MSTORE RETURN JUMPDEST PUSH4 0x4E487B71 PUSH1 0xE0 SHL DUP2 MSTORE PUSH1 0x11 DUP7 MSTORE PUSH1 0x24 SWAP1 REVERT JUMPDEST PUSH2 0x2C5 PUSH2 0x2BE PUSH1 0x9 SLOAD SWAP4 PUSH2 0x1D75 JUMP JUMPDEST PUSH1 0xA SLOAD SWAP1 PUSH2 0x2AA JUMP JUMPDEST PUSH1 0x8 SLOAD AND EQ SWAP1 POP CODESIZE DUP1 PUSH2 0x298 JUMP JUMPDEST DUP1 REVERT JUMPDEST POP POP CALLVALUE PUSH2 0x351 JUMPI DUP2 PUSH1 0x3 NOT CALLDATASIZE ADD SLT PUSH2 0x351 JUMPI PUSH1 0x20 SWAP1 PUSH2 0x2F1 PUSH2 0x1E9D JUMP JUMPDEST POP DUP1 REVERT JUMPDEST POP POP CALLVALUE PUSH2 0x351 JUMPI DUP1 PUSH1 0x3 NOT CALLDATASIZE ADD SLT PUSH2 0x351 JUMPI DUP1 PUSH1 0x20 SWAP3 PUSH2 0x373 PUSH2 0x19E2 JUMP JUMPDEST PUSH2 0x37B PUSH2 0x19FD JUMP JUMPDEST PUSH1 0x1 PUSH1 0x1 PUSH1 0xA0 SHL SUB SWAP2 DUP3 AND DUP4 MSTORE PUSH1 0x1 DUP7 MSTORE DUP4 DUP4 KECCAK256 SWAP2 AND DUP3 MSTORE DUP5 MSTORE KECCAK256 SLOAD SWAP1 MLOAD SWAP1 DUP2 MSTORE RETURN JUMPDEST POP POP CALLVALUE PUSH2 0x351 JUMPI DUP2 PUSH1 0x3 NOT CALLDATASIZE ADD SLT PUSH2 0x351 JUMPI PUSH1 0x20 SWAP1 MLOAD PUSH2 0x2710 DUP2 MSTORE RETURN JUMPDEST POP POP CALLVALUE PUSH2 0x351 JUMPI DUP2 PUSH1 0x3 NOT CALLDATASIZE ADD SLT PUSH2 0x351 JUMPI PUSH1 0x8 SLOAD SWAP1 MLOAD PUSH1 0x1 PUSH1 0x1 PUSH1 0xA0 SHL SUB SWAP1 SWAP2 AND DUP2 MSTORE PUSH1 0x20 SWAP1 RETURN JUMPDEST POP POP CALLVALUE PUSH2 0x351 JUMPI DUP2 PUSH1 0x3 NOT CALLDATASIZE ADD SLT PUSH2 0x351 JUMPI PUSH1 0x20 SWAP1 PUSH1 0xD SLOAD SWAP1 MLOAD SWAP1 DUP2 MSTORE RETURN JUMPDEST POP POP CALLVALUE PUSH2 0x351 JUMPI DUP2 PUSH1 0x3 NOT CALLDATASIZE ADD SLT PUSH2 0x351 JUMPI PUSH1 0x20 SWAP1 PUSH2 0x2F1 PUSH2 0x1ED6 JUMP JUMPDEST POP POP CALLVALUE PUSH2 0x351 JUMPI DUP1 PUSH1 0x3 NOT CALLDATASIZE ADD SLT PUSH2 0x351 JUMPI PUSH1 0x20 SWAP1 PUSH2 0x44A PUSH2 0x440 PUSH2 0x19E2 JUMP JUMPDEST PUSH1 0x24 CALLDATALOAD SWAP1 CALLER PUSH2 0x1AE0 JUMP JUMPDEST MLOAD PUSH1 0x1 DUP2 MSTORE RETURN JUMPDEST POP DUP3 CALLVALUE PUSH2 0x331 JUMPI DUP3 PUSH1 0x3 NOT CALLDATASIZE ADD SLT PUSH2 0x331 JUMPI PUSH2 0x46B PUSH2 0x19E2 JUMP JUMPDEST SWAP2 DUP4 PUSH1 0x24 CALLDATALOAD SWAP3 CALLER DUP2 MSTORE PUSH1 0x1 PUSH1 0x20 MSTORE DUP2 DUP2 KECCAK256 PUSH1 0x1 DUP1 PUSH1 0xA0 SHL SUB DUP7 AND DUP3 MSTORE PUSH1 0x20 MSTORE KECCAK256 SLOAD SWAP1 DUP3 DUP3 LT PUSH2 0x4A4 JUMPI PUSH1 0x20 DUP6 PUSH2 0x44A DUP6 DUP6 SUB DUP8 CALLER PUSH2 0x1C4E JUMP JUMPDEST PUSH1 0x84 SWAP1 PUSH1 0x20 DUP7 MLOAD SWAP2 PUSH3 0x461BCD PUSH1 0xE5 SHL DUP4 MSTORE DUP3 ADD MSTORE PUSH1 0x25 PUSH1 0x24 DUP3 ADD MSTORE PUSH32 0x45524332303A2064656372656173656420616C6C6F77616E63652062656C6F77 PUSH1 0x44 DUP3 ADD MSTORE PUSH5 0x207A65726F PUSH1 0xD8 SHL PUSH1 0x64 DUP3 ADD MSTORE REVERT JUMPDEST POP SWAP2 SWAP1 CALLVALUE PUSH2 0x351 JUMPI DUP2 PUSH1 0x3 NOT CALLDATASIZE ADD SLT PUSH2 0x351 JUMPI DUP1 MLOAD SWAP2 DUP1 SWAP4 DUP1 SLOAD SWAP2 PUSH1 0x1 SWAP1 DUP4 DUP3 SHR SWAP3 DUP3 DUP6 AND SWAP5 DUP6 ISZERO PUSH2 0x5EF JUMPI JUMPDEST PUSH1 0x20 SWAP6 DUP7 DUP7 LT DUP2 EQ PUSH2 0x5DC JUMPI DUP6 DUP10 MSTORE SWAP1 DUP2 ISZERO PUSH2 0x5B8 JUMPI POP PUSH1 0x1 EQ PUSH2 0x560 JUMPI JUMPDEST PUSH2 0x55C DUP8 DUP8 PUSH2 0x552 DUP3 DUP13 SUB DUP4 PUSH2 0x1A85 JUMP JUMPDEST MLOAD SWAP2 DUP3 SWAP2 DUP3 PUSH2 0x1999 JUMP JUMPDEST SUB SWAP1 RETURN JUMPDEST DUP2 MSTORE SWAP3 SWAP6 POP PUSH32 0x8A35ACFBC15FF81A39AE7D344FD709F28E8600B4AA8C65C6B64BFE7FE36BD19B JUMPDEST DUP3 DUP5 LT PUSH2 0x5A5 JUMPI POP POP POP DUP3 PUSH2 0x55C SWAP5 PUSH2 0x552 SWAP3 DUP3 ADD ADD SWAP5 CODESIZE DUP1 PUSH2 0x541 JUMP JUMPDEST DUP1 SLOAD DUP7 DUP6 ADD DUP9 ADD MSTORE SWAP3 DUP7 ADD SWAP3 DUP2 ADD PUSH2 0x587 JUMP JUMPDEST PUSH1 0xFF NOT AND DUP9 DUP8 ADD MSTORE POP POP POP POP ISZERO ISZERO PUSH1 0x5 SHL DUP4 ADD ADD SWAP3 POP PUSH2 0x552 DUP3 PUSH2 0x55C CODESIZE DUP1 PUSH2 0x541 JUMP JUMPDEST PUSH4 0x4E487B71 PUSH1 0xE0 SHL DUP5 MSTORE PUSH1 0x22 DUP4 MSTORE PUSH1 0x24 DUP5 REVERT JUMPDEST SWAP4 PUSH1 0x7F AND SWAP4 PUSH2 0x522 JUMP JUMPDEST POP POP CALLVALUE PUSH2 0x351 JUMPI DUP2 PUSH1 0x3 NOT CALLDATASIZE ADD SLT PUSH2 0x351 JUMPI PUSH1 0x6 SLOAD SWAP1 MLOAD PUSH1 0x1 PUSH1 0x1 PUSH1 0xA0 SHL SUB SWAP1 SWAP2 AND DUP2 MSTORE PUSH1 0x20 SWAP1 RETURN JUMPDEST POP DUP3 SWAP1 CALLVALUE PUSH2 0x351 JUMPI PUSH2 0x633 CALLDATASIZE PUSH2 0x1A13 JUMP JUMPDEST SWAP4 SWAP2 SWAP1 SWAP3 PUSH2 0x63F PUSH2 0x1DBF JUMP JUMPDEST DUP2 ISZERO PUSH2 0xA4D JUMPI CALLER DUP4 MSTORE PUSH1 0x20 SWAP3 DUP1 DUP5 MSTORE DUP3 DUP8 DUP3 KECCAK256 SLOAD LT PUSH2 0xA11 JUMPI PUSH2 0x664 PUSH1 0x9 SLOAD DUP5 PUSH2 0x1D8C JUMP JUMPDEST SWAP6 PUSH2 0x687 PUSH2 0x675 PUSH1 0x2 SLOAD DUP1 SWAP10 PUSH2 0x1D9F JUMP JUMPDEST SWAP8 PUSH2 0x682 PUSH1 0xA SLOAD DUP8 PUSH2 0x1D8C JUMP JUMPDEST PUSH2 0x1D9F JUMP JUMPDEST SWAP6 DUP8 LT PUSH2 0x9D7 JUMPI DUP6 LT PUSH2 0x99D JUMPI CALLER ISZERO PUSH2 0x950 JUMPI CALLER DUP2 MSTORE DUP1 DUP5 MSTORE DUP7 DUP2 KECCAK256 SLOAD DUP4 DUP2 LT PUSH2 0x902 JUMPI DUP4 SWAP1 CALLER DUP4 MSTORE DUP3 DUP7 MSTORE SUB DUP8 DUP3 KECCAK256 SSTORE DUP3 PUSH1 0x2 SLOAD SUB PUSH1 0x2 SSTORE DUP1 DUP8 MLOAD DUP5 DUP2 MSTORE PUSH32 0xDDF252AD1BE2C89B69C2B068FC378DAA952BA7F163C4A11628F55A4DF523B3EF DUP7 CALLER SWAP3 LOG3 PUSH1 0x7 SLOAD DUP8 MLOAD PUSH4 0xA9059CBB PUSH1 0xE0 SHL DUP1 DUP3 MSTORE CALLER DUP3 DUP7 ADD SWAP1 DUP2 MSTORE PUSH1 0x20 DUP2 ADD DUP11 SWAP1 MSTORE PUSH1 0x1 PUSH1 0x1 PUSH1 0xA0 SHL SUB SWAP6 SWAP4 SWAP2 SWAP3 SWAP2 DUP9 SWAP2 DUP4 SWAP2 DUP9 AND SWAP1 DUP3 SWAP1 DUP9 SWAP1 DUP3 SWAP1 PUSH1 0x40 ADD SUB SWAP3 GAS CALL DUP1 ISZERO PUSH2 0x8A4 JUMPI PUSH2 0x8E5 JUMPI JUMPDEST POP PUSH1 0x8 SLOAD DUP10 MLOAD SWAP2 DUP3 MSTORE CALLER DUP4 DUP4 ADD SWAP1 DUP2 MSTORE PUSH1 0x20 DUP2 ADD DUP10 SWAP1 MSTORE DUP8 SWAP2 DUP4 SWAP2 DUP3 SWAP1 SUB PUSH1 0x40 ADD SWAP1 DUP3 SWAP1 DUP8 SWAP1 DUP10 AND GAS CALL DUP1 ISZERO PUSH2 0x8DB JUMPI PUSH2 0x8AE JUMPI JUMPDEST POP DUP3 PUSH1 0x7 SLOAD AND SWAP1 DUP9 MLOAD SWAP4 DUP7 DUP6 PUSH1 0x24 DUP2 PUSH4 0x70A08231 PUSH1 0xE0 SHL SWAP7 DUP8 DUP3 MSTORE ADDRESS DUP8 DUP4 ADD MSTORE GAS STATICCALL SWAP5 DUP6 ISZERO PUSH2 0x8A4 JUMPI SWAP1 DUP8 SWAP3 SWAP2 DUP6 SWAP7 PUSH2 0x86C JUMPI JUMPDEST POP PUSH1 0x24 SWAP1 DUP7 PUSH1 0x9 SSTORE PUSH1 0x8 SLOAD AND SWAP4 DUP12 MLOAD SWAP5 DUP6 SWAP4 DUP5 SWAP3 DUP4 MSTORE ADDRESS SWAP1 DUP4 ADD MSTORE GAS STATICCALL SWAP2 DUP3 ISZERO PUSH2 0x861 JUMPI DUP1 SWAP3 PUSH2 0x82F JUMPI JUMPDEST POP POP PUSH2 0x7D8 SWAP2 DUP2 PUSH1 0xA SSTORE PUSH2 0x1D8C JUMP JUMPDEST PUSH1 0xD SSTORE PUSH32 0x1DC8BB69DF2B8E91FBDCBFCF93D951B3F0000F085A95FE3F7946D6161439245D DUP6 MLOAD DUP1 PUSH2 0x81D CALLER SWAP5 DUP8 DUP10 DUP5 PUSH1 0x40 SWAP2 SWAP5 SWAP4 SWAP3 PUSH1 0x60 DUP3 ADD SWAP6 DUP3 MSTORE PUSH1 0x20 DUP3 ADD MSTORE ADD MSTORE JUMP JUMPDEST SUB SWAP1 LOG2 PUSH1 0x1 PUSH1 0x5 SSTORE DUP4 MLOAD SWAP3 DUP4 MSTORE DUP3 ADD MSTORE RETURN JUMPDEST SWAP1 SWAP2 POP DUP5 DUP3 DUP2 RETURNDATASIZE DUP4 GT PUSH2 0x85A JUMPI JUMPDEST PUSH2 0x847 DUP2 DUP4 PUSH2 0x1A85 JUMP JUMPDEST DUP2 ADD SUB SLT PUSH2 0x331 JUMPI POP MLOAD PUSH2 0x7D8 DUP9 PUSH2 0x7C9 JUMP JUMPDEST POP RETURNDATASIZE PUSH2 0x83D JUMP JUMPDEST DUP9 MLOAD SWAP1 RETURNDATASIZE SWAP1 DUP3 RETURNDATACOPY RETURNDATASIZE SWAP1 REVERT JUMPDEST DUP4 DUP2 SWAP4 SWAP5 SWAP3 SWAP8 POP RETURNDATASIZE DUP4 GT PUSH2 0x89D JUMPI JUMPDEST PUSH2 0x885 DUP2 DUP4 PUSH2 0x1A85 JUMP JUMPDEST DUP2 ADD SUB SLT PUSH2 0x899 JUMPI MLOAD SWAP4 DUP7 SWAP2 SWAP1 PUSH1 0x24 PUSH2 0x79E JUMP JUMPDEST DUP4 DUP1 REVERT JUMPDEST POP RETURNDATASIZE PUSH2 0x87B JUMP JUMPDEST DUP11 MLOAD RETURNDATASIZE DUP7 DUP3 RETURNDATACOPY RETURNDATASIZE SWAP1 REVERT JUMPDEST PUSH2 0x8CD SWAP1 DUP7 RETURNDATASIZE DUP9 GT PUSH2 0x8D4 JUMPI JUMPDEST PUSH2 0x8C5 DUP2 DUP4 PUSH2 0x1A85 JUMP JUMPDEST DUP2 ADD SWAP1 PUSH2 0x1D50 JUMP JUMPDEST POP DUP9 PUSH2 0x76A JUMP JUMPDEST POP RETURNDATASIZE PUSH2 0x8BB JUMP JUMPDEST DUP10 MLOAD RETURNDATASIZE DUP6 DUP3 RETURNDATACOPY RETURNDATASIZE SWAP1 REVERT JUMPDEST PUSH2 0x8FB SWAP1 DUP8 RETURNDATASIZE DUP10 GT PUSH2 0x8D4 JUMPI PUSH2 0x8C5 DUP2 DUP4 PUSH2 0x1A85 JUMP JUMPDEST POP DUP10 PUSH2 0x735 JUMP JUMPDEST DUP8 MLOAD PUSH3 0x461BCD PUSH1 0xE5 SHL DUP2 MSTORE DUP1 DUP5 ADD DUP7 SWAP1 MSTORE PUSH1 0x22 PUSH1 0x24 DUP3 ADD MSTORE PUSH32 0x45524332303A206275726E20616D6F756E7420657863656564732062616C616E PUSH1 0x44 DUP3 ADD MSTORE PUSH2 0x6365 PUSH1 0xF0 SHL PUSH1 0x64 DUP3 ADD MSTORE PUSH1 0x84 SWAP1 REVERT JUMPDEST DUP7 MLOAD PUSH3 0x461BCD PUSH1 0xE5 SHL DUP2 MSTORE DUP1 DUP4 ADD DUP6 SWAP1 MSTORE PUSH1 0x21 PUSH1 0x24 DUP3 ADD MSTORE PUSH32 0x45524332303A206275726E2066726F6D20746865207A65726F20616464726573 PUSH1 0x44 DUP3 ADD MSTORE PUSH1 0x73 PUSH1 0xF8 SHL PUSH1 0x64 DUP3 ADD MSTORE PUSH1 0x84 SWAP1 REVERT JUMPDEST DUP7 MLOAD PUSH3 0x461BCD PUSH1 0xE5 SHL DUP2 MSTORE DUP1 DUP4 ADD DUP6 SWAP1 MSTORE PUSH1 0x14 PUSH1 0x24 DUP3 ADD MSTORE PUSH20 0x496E73756666696369656E7420616D6F756E7431 PUSH1 0x60 SHL PUSH1 0x44 DUP3 ADD MSTORE PUSH1 0x64 SWAP1 REVERT JUMPDEST DUP8 MLOAD PUSH3 0x461BCD PUSH1 0xE5 SHL DUP2 MSTORE DUP1 DUP5 ADD DUP7 SWAP1 MSTORE PUSH1 0x14 PUSH1 0x24 DUP3 ADD MSTORE PUSH20 0x496E73756666696369656E7420616D6F756E743 PUSH1 0x64 SHL PUSH1 0x44 DUP3 ADD MSTORE PUSH1 0x64 SWAP1 REVERT JUMPDEST DUP7 MLOAD PUSH3 0x461BCD PUSH1 0xE5 SHL DUP2 MSTORE DUP1 DUP4 ADD DUP6 SWAP1 MSTORE PUSH1 0x16 PUSH1 0x24 DUP3 ADD MSTORE PUSH22 0x496E73756666696369656E74206C6971756964697479 PUSH1 0x50 SHL PUSH1 0x44 DUP3 ADD MSTORE PUSH1 0x64 SWAP1 REVERT JUMPDEST PUSH1 0x64 SWAP1 PUSH1 0x20 DUP8 MLOAD SWAP2 PUSH3 0x461BCD PUSH1 0xE5 SHL DUP4 MSTORE DUP3 ADD MSTORE PUSH1 0x20 PUSH1 0x24 DUP3 ADD MSTORE PUSH32 0x4C6971756964697479206D7573742062652067726561746572207468616E2030 PUSH1 0x44 DUP3 ADD MSTORE REVERT JUMPDEST DUP4 CALLVALUE PUSH2 0x331 JUMPI DUP1 PUSH1 0x3 NOT CALLDATASIZE ADD SLT PUSH2 0x331 JUMPI PUSH2 0xAA9 PUSH2 0x1A2D JUMP JUMPDEST PUSH1 0x6 DUP1 SLOAD PUSH1 0x1 PUSH1 0x1 PUSH1 0xA0 SHL SUB NOT DUP2 AND SWAP1 SWAP2 SSTORE DUP2 SWAP1 PUSH1 0x1 PUSH1 0x1 PUSH1 0xA0 SHL SUB AND PUSH32 0x8BE0079C531659141344CD1FD0A4F28419497F9722A3DAAFE3B4186F6B6457E0 DUP3 DUP1 LOG3 DUP1 RETURN JUMPDEST POP POP CALLVALUE PUSH2 0x351 JUMPI PUSH1 0x20 CALLDATASIZE PUSH1 0x3 NOT ADD SLT PUSH2 0x351 JUMPI PUSH1 0x20 SWAP2 DUP2 SWAP1 PUSH1 0x1 PUSH1 0x1 PUSH1 0xA0 SHL SUB PUSH2 0xB15 PUSH2 0x19E2 JUMP JUMPDEST AND DUP2 MSTORE DUP1 DUP5 MSTORE KECCAK256 SLOAD SWAP1 MLOAD SWAP1 DUP2 MSTORE RETURN JUMPDEST POP SWAP1 CALLVALUE PUSH2 0x24C JUMPI PUSH1 0x60 CALLDATASIZE PUSH1 0x3 NOT ADD SLT PUSH2 0x24C JUMPI PUSH1 0x1 PUSH1 0x1 PUSH1 0xA0 SHL SUB SWAP2 PUSH1 0x44 CALLDATALOAD DUP4 DUP2 AND SWAP1 DUP3 CALLDATALOAD SWAP1 DUP3 SWAP1 SUB PUSH2 0xE9E JUMPI PUSH2 0xB59 PUSH2 0x1DBF JUMP JUMPDEST PUSH2 0xB64 DUP2 ISZERO ISZERO PUSH2 0x1E15 JUMP JUMPDEST DUP5 PUSH1 0x7 SLOAD AND SWAP3 DUP4 DUP4 EQ SWAP4 DUP5 DUP1 ISZERO PUSH2 0x1024 JUMPI JUMPDEST PUSH2 0xB7F SWAP1 PUSH2 0x1E61 JUMP JUMPDEST DUP5 ISZERO PUSH2 0x101E JUMPI POP DUP6 PUSH1 0x8 SLOAD AND SWAP7 JUMPDEST DUP5 ISZERO PUSH2 0x1015 JUMPI PUSH1 0x9 SLOAD SWAP5 JUMPDEST ISZERO PUSH2 0x100B JUMPI DUP7 PUSH1 0xA SLOAD SWAP9 JUMPDEST AND SWAP5 DUP7 MLOAD SWAP3 PUSH4 0x70A08231 PUSH1 0xE0 SHL SWAP2 DUP3 DUP6 MSTORE ADDRESS DUP3 DUP7 ADD MSTORE PUSH1 0x20 SWAP11 PUSH1 0x24 SWAP6 DUP13 DUP2 DUP9 DUP2 DUP14 GAS STATICCALL DUP1 ISZERO PUSH2 0xEA9 JUMPI SWAP1 DUP14 SWAP2 PUSH2 0xFE2 JUMPI JUMPDEST POP POP DUP10 MLOAD PUSH4 0x23B872DD PUSH1 0xE0 SHL DUP2 MSTORE CALLER DUP5 DUP3 ADD SWAP1 DUP2 MSTORE ADDRESS PUSH1 0x20 DUP3 ADD MSTORE PUSH1 0x40 DUP2 ADD DUP10 SWAP1 MSTORE DUP14 SWAP1 DUP3 SWAP1 DUP2 SWAP1 PUSH1 0x60 ADD SUB DUP2 DUP10 DUP14 GAS CALL DUP1 ISZERO PUSH2 0xEA9 JUMPI PUSH2 0xFC5 JUMPI JUMPDEST POP PUSH2 0xC24 PUSH2 0xC1D DUP9 PUSH2 0x1D75 JUMP JUMPDEST SWAP2 DUP3 PUSH2 0x1D8C JUMP JUMPDEST SWAP2 PUSH2 0x2710 SWAP1 DUP2 DUP2 MUL SWAP2 DUP2 DUP4 DIV EQ SWAP1 ISZERO OR ISZERO PUSH2 0xFB3 JUMPI PUSH2 0xC47 SWAP3 SWAP2 PUSH2 0x2EB SWAP2 PUSH2 0x1ABD JUMP JUMPDEST SWAP9 DUP5 CALLDATALOAD DUP11 LT PUSH2 0xF71 JUMPI DUP10 ISZERO PUSH2 0xF37 JUMPI DUP5 DUP12 DUP3 PUSH1 0x7 SLOAD AND DUP1 DUP11 EQ PUSH1 0x0 EQ PUSH2 0xEE0 JUMPI DUP12 MLOAD SWAP3 DUP4 DUP1 SWAP3 DUP9 DUP3 MSTORE ADDRESS DUP9 DUP4 ADD MSTORE GAS STATICCALL SWAP1 DUP2 ISZERO PUSH2 0xE12 JUMPI DUP6 SWAP2 PUSH2 0xEB3 JUMPI JUMPDEST POP JUMPDEST DUP10 MLOAD DUP5 DUP2 MSTORE ADDRESS DUP5 DUP3 ADD MSTORE DUP13 DUP2 DUP9 DUP2 DUP14 GAS STATICCALL SWAP1 DUP2 ISZERO PUSH2 0xEA9 JUMPI SWAP1 DUP13 SWAP2 DUP8 SWAP2 PUSH2 0xE72 JUMPI JUMPDEST POP PUSH2 0xCBE SWAP3 SWAP2 PUSH2 0xCB8 SWAP2 PUSH2 0x1D68 JUMP JUMPDEST SWAP1 PUSH2 0x1D8C JUMP JUMPDEST PUSH1 0xD SLOAD GT PUSH2 0xE39 JUMPI DUP9 MLOAD PUSH4 0xA9059CBB PUSH1 0xE0 SHL DUP2 MSTORE CALLER DUP4 DUP3 ADD SWAP1 DUP2 MSTORE PUSH1 0x20 DUP2 ADD DUP13 SWAP1 MSTORE DUP13 SWAP1 DUP3 SWAP1 DUP2 SWAP1 PUSH1 0x40 ADD SUB DUP2 DUP9 DUP14 GAS CALL DUP1 ISZERO PUSH2 0xE12 JUMPI SWAP1 DUP7 SWAP3 SWAP2 PUSH2 0xE1C JUMPI JUMPDEST POP DUP12 DUP2 PUSH1 0x7 SLOAD AND DUP12 MLOAD SWAP8 DUP9 DUP1 SWAP3 DUP9 DUP3 MSTORE ADDRESS DUP9 DUP4 ADD MSTORE GAS STATICCALL SWAP6 DUP7 ISZERO PUSH2 0xE12 JUMPI SWAP1 DUP13 SWAP4 SWAP3 SWAP2 DUP7 SWAP8 PUSH2 0xDD9 JUMPI JUMPDEST POP DUP7 PUSH1 0x9 SSTORE PUSH1 0x8 SLOAD AND SWAP4 DUP11 MLOAD SWAP5 DUP6 SWAP4 DUP5 SWAP3 DUP4 MSTORE ADDRESS SWAP1 DUP4 ADD MSTORE GAS STATICCALL SWAP2 DUP3 ISZERO PUSH2 0xDCE JUMPI DUP1 SWAP3 PUSH2 0xD9C JUMPI JUMPDEST POP POP PUSH2 0xD5F SWAP2 DUP2 PUSH1 0xA SSTORE PUSH2 0x1D8C JUMP JUMPDEST PUSH1 0xD SSTORE DUP4 MLOAD SWAP1 DUP2 MSTORE DUP5 DUP7 DUP3 ADD MSTORE PUSH32 0x53D794B2310B8D186A24AE24A65EE066983A52A6EFA6BD3DF09A7601A3CB4F3 DUP5 CALLER SWAP3 LOG4 PUSH1 0x1 PUSH1 0x5 SSTORE MLOAD SWAP1 DUP2 MSTORE RETURN JUMPDEST SWAP1 SWAP2 POP DUP9 DUP3 DUP2 RETURNDATASIZE DUP4 GT PUSH2 0xDC7 JUMPI JUMPDEST PUSH2 0xDB4 DUP2 DUP4 PUSH2 0x1A85 JUMP JUMPDEST DUP2 ADD SUB SLT PUSH2 0x331 JUMPI POP MLOAD PUSH2 0xD5F CODESIZE PUSH2 0xD50 JUMP JUMPDEST POP RETURNDATASIZE PUSH2 0xDAA JUMP JUMPDEST DUP8 MLOAD SWAP1 RETURNDATASIZE SWAP1 DUP3 RETURNDATACOPY RETURNDATASIZE SWAP1 REVERT JUMPDEST DUP5 DUP2 SWAP4 SWAP5 SWAP6 SWAP3 SWAP9 POP RETURNDATASIZE DUP4 GT PUSH2 0xE0B JUMPI JUMPDEST PUSH2 0xDF3 DUP2 DUP4 PUSH2 0x1A85 JUMP JUMPDEST DUP2 ADD SUB SLT PUSH2 0xE07 JUMPI SWAP1 DUP12 SWAP3 SWAP2 MLOAD SWAP6 CODESIZE PUSH2 0xD28 JUMP JUMPDEST DUP5 DUP1 REVERT JUMPDEST POP RETURNDATASIZE PUSH2 0xDE9 JUMP JUMPDEST DUP11 MLOAD RETURNDATASIZE DUP8 DUP3 RETURNDATACOPY RETURNDATASIZE SWAP1 REVERT JUMPDEST PUSH2 0xE32 SWAP1 DUP14 DUP1 RETURNDATASIZE LT PUSH2 0x8D4 JUMPI PUSH2 0x8C5 DUP2 DUP4 PUSH2 0x1A85 JUMP JUMPDEST POP CODESIZE PUSH2 0xCFE JUMP JUMPDEST DUP9 MLOAD PUSH3 0x461BCD PUSH1 0xE5 SHL DUP2 MSTORE DUP1 DUP4 ADD DUP13 SWAP1 MSTORE PUSH1 0x14 DUP2 DUP8 ADD MSTORE PUSH20 0x12C81A5B9D985C9A585B9D081D9A5BDB185D1959 PUSH1 0x62 SHL PUSH1 0x44 DUP3 ADD MSTORE PUSH1 0x64 SWAP1 REVERT JUMPDEST DUP1 SWAP3 POP DUP15 DUP1 SWAP3 POP RETURNDATASIZE DUP4 GT PUSH2 0xEA2 JUMPI JUMPDEST PUSH2 0xE8B DUP2 DUP4 PUSH2 0x1A85 JUMP JUMPDEST DUP2 ADD SUB SLT PUSH2 0xE9E JUMPI MLOAD DUP12 SWAP1 PUSH2 0xCBE PUSH2 0xCA9 JUMP JUMPDEST DUP6 DUP1 REVERT JUMPDEST POP RETURNDATASIZE PUSH2 0xE81 JUMP JUMPDEST DUP12 MLOAD RETURNDATASIZE DUP9 DUP3 RETURNDATACOPY RETURNDATASIZE SWAP1 REVERT JUMPDEST SWAP1 POP DUP12 DUP2 DUP2 RETURNDATASIZE DUP4 GT PUSH2 0xED9 JUMPI JUMPDEST PUSH2 0xECA DUP2 DUP4 PUSH2 0x1A85 JUMP JUMPDEST DUP2 ADD SUB SLT PUSH2 0xE07 JUMPI MLOAD CODESIZE PUSH2 0xC85 JUMP JUMPDEST POP RETURNDATASIZE PUSH2 0xEC0 JUMP JUMPDEST POP DUP3 PUSH1 0x8 SLOAD AND DUP12 MLOAD SWAP3 DUP4 DUP1 SWAP3 DUP9 DUP3 MSTORE ADDRESS DUP9 DUP4 ADD MSTORE GAS STATICCALL SWAP1 DUP2 ISZERO PUSH2 0xE12 JUMPI DUP6 SWAP2 PUSH2 0xF0A JUMPI JUMPDEST POP PUSH2 0xC87 JUMP JUMPDEST SWAP1 POP DUP12 DUP2 DUP2 RETURNDATASIZE DUP4 GT PUSH2 0xF30 JUMPI JUMPDEST PUSH2 0xF21 DUP2 DUP4 PUSH2 0x1A85 JUMP JUMPDEST DUP2 ADD SUB SLT PUSH2 0xE07 JUMPI MLOAD CODESIZE PUSH2 0xF04 JUMP JUMPDEST POP RETURNDATASIZE PUSH2 0xF17 JUMP JUMPDEST DUP9 MLOAD PUSH3 0x461BCD PUSH1 0xE5 SHL DUP2 MSTORE DUP1 DUP4 ADD DUP13 SWAP1 MSTORE PUSH1 0x15 DUP2 DUP8 ADD MSTORE PUSH21 0x125B9D985B1A59081BDD5D1C1D5D08185B5BDD5B9D PUSH1 0x5A SHL PUSH1 0x44 DUP3 ADD MSTORE PUSH1 0x64 SWAP1 REVERT JUMPDEST DUP9 MLOAD PUSH3 0x461BCD PUSH1 0xE5 SHL DUP2 MSTORE DUP1 DUP4 ADD DUP13 SWAP1 MSTORE PUSH1 0x1A DUP2 DUP8 ADD MSTORE PUSH32 0x496E73756666696369656E74206F757470757420616D6F756E74000000000000 PUSH1 0x44 DUP3 ADD MSTORE PUSH1 0x64 SWAP1 REVERT JUMPDEST PUSH4 0x4E487B71 PUSH1 0xE0 SHL DUP7 MSTORE PUSH1 0x11 DUP5 MSTORE DUP7 DUP7 REVERT JUMPDEST PUSH2 0xFDB SWAP1 DUP14 DUP1 RETURNDATASIZE LT PUSH2 0x8D4 JUMPI PUSH2 0x8C5 DUP2 DUP4 PUSH2 0x1A85 JUMP JUMPDEST POP CODESIZE PUSH2 0xC10 JUMP JUMPDEST DUP2 RETURNDATASIZE DUP4 GT PUSH2 0x1004 JUMPI JUMPDEST PUSH2 0xFF5 DUP2 DUP4 PUSH2 0x1A85 JUMP JUMPDEST DUP2 ADD SUB SLT PUSH2 0xE07 JUMPI DUP12 CODESIZE PUSH2 0xBD4 JUMP JUMPDEST POP RETURNDATASIZE PUSH2 0xFEB JUMP JUMPDEST DUP7 PUSH1 0x9 SLOAD SWAP9 PUSH2 0xBA3 JUMP JUMPDEST PUSH1 0xA SLOAD SWAP5 PUSH2 0xB98 JUMP JUMPDEST SWAP7 PUSH2 0xB8D JUMP JUMPDEST POP PUSH1 0x8 SLOAD DUP8 AND DUP5 EQ PUSH2 0xB76 JUMP JUMPDEST POP POP CALLVALUE PUSH2 0x351 JUMPI DUP2 PUSH1 0x3 NOT CALLDATASIZE ADD SLT PUSH2 0x351 JUMPI PUSH1 0x20 SWAP1 PUSH1 0xC SLOAD SWAP1 MLOAD SWAP1 DUP2 MSTORE RETURN JUMPDEST POP POP CALLVALUE PUSH2 0x351 JUMPI DUP2 PUSH1 0x3 NOT CALLDATASIZE ADD SLT PUSH2 0x351 JUMPI PUSH1 0x20 SWAP1 PUSH1 0xFF PUSH1 0x6 SLOAD PUSH1 0xA0 SHR AND SWAP1 MLOAD SWAP1 ISZERO ISZERO DUP2 MSTORE RETURN JUMPDEST POP POP CALLVALUE PUSH2 0x351 JUMPI DUP2 PUSH1 0x3 NOT CALLDATASIZE ADD SLT PUSH2 0x351 JUMPI PUSH1 0x20 SWAP1 PUSH1 0xA SLOAD SWAP1 MLOAD SWAP1 DUP2 MSTORE RETURN JUMPDEST POP POP CALLVALUE PUSH2 0x351 JUMPI DUP2 PUSH1 0x3 NOT CALLDATASIZE ADD SLT PUSH2 0x351 JUMPI PUSH1 0x20 SWAP1 PUSH1 0x9 SLOAD SWAP1 MLOAD SWAP1 DUP2 MSTORE RETURN JUMPDEST POP SWAP1 CALLVALUE PUSH2 0x24C JUMPI PUSH2 0x10C5 CALLDATASIZE PUSH2 0x1A13 JUMP JUMPDEST SWAP4 SWAP1 PUSH2 0x10CF PUSH2 0x1DBF JUMP JUMPDEST DUP3 ISZERO ISZERO DUP1 PUSH2 0x15AB JUMPI JUMPDEST ISZERO PUSH2 0x1568 JUMPI PUSH1 0x7 SLOAD DUP5 MLOAD PUSH4 0x70A08231 PUSH1 0xE0 SHL DUP1 DUP3 MSTORE ADDRESS DUP6 DUP4 ADD MSTORE PUSH1 0x20 SWAP9 PUSH1 0x24 SWAP7 SWAP2 SWAP5 SWAP1 SWAP4 PUSH1 0x1 PUSH1 0x1 PUSH1 0xA0 SHL SUB SWAP3 SWAP1 DUP4 AND SWAP1 DUP12 DUP6 DUP11 DUP2 DUP6 GAS STATICCALL SWAP5 DUP6 ISZERO PUSH2 0x155E JUMPI SWAP1 DUP7 SWAP6 SWAP5 SWAP4 SWAP3 SWAP2 DUP11 SWAP8 SWAP6 PUSH2 0x1522 JUMPI JUMPDEST POP DUP13 DUP5 PUSH1 0x8 SLOAD AND DUP13 MLOAD SWAP12 DUP13 DUP1 SWAP3 DUP13 DUP3 MSTORE DUP14 ADDRESS SWAP1 DUP4 ADD MSTORE GAS STATICCALL SWAP10 DUP11 ISZERO PUSH2 0xEA9 JUMPI DUP7 SWAP11 PUSH2 0x14E9 JUMPI JUMPDEST POP DUP11 MLOAD PUSH4 0x23B872DD PUSH1 0xE0 SHL DUP1 DUP3 MSTORE CALLER DUP3 DUP13 ADD SWAP1 DUP2 MSTORE ADDRESS PUSH1 0x20 DUP3 ADD MSTORE PUSH1 0x40 DUP2 ADD SWAP4 SWAP1 SWAP4 MSTORE SWAP3 SWAP1 SWAP2 DUP15 SWAP2 DUP4 SWAP2 DUP3 SWAP1 DUP11 SWAP1 DUP3 SWAP1 PUSH1 0x60 ADD SUB SWAP3 GAS CALL DUP1 ISZERO PUSH2 0xEA9 JUMPI DUP10 DUP8 DUP16 SWAP5 PUSH2 0x11CB SWAP7 SWAP5 DUP16 SWAP5 PUSH2 0x14CC JUMPI JUMPDEST POP PUSH1 0x8 SLOAD SWAP4 MLOAD SWAP1 DUP2 MSTORE CALLER SWAP3 DUP2 ADD SWAP3 DUP4 MSTORE ADDRESS PUSH1 0x20 DUP5 ADD MSTORE PUSH1 0x40 DUP4 ADD SWAP5 SWAP1 SWAP5 MSTORE SWAP3 SWAP5 DUP6 SWAP4 SWAP3 DUP8 AND SWAP3 DUP5 SWAP3 SWAP1 SWAP2 DUP4 SWAP2 PUSH1 0x60 ADD SWAP1 JUMP JUMPDEST SUB SWAP3 GAS CALL DUP1 ISZERO PUSH2 0x14A5 JUMPI SWAP1 DUP6 SWAP4 SWAP3 SWAP2 PUSH2 0x14AF JUMPI JUMPDEST POP DUP11 DUP2 PUSH1 0x7 SLOAD AND DUP11 MLOAD SWAP7 DUP8 DUP1 SWAP3 DUP11 DUP3 MSTORE ADDRESS DUP13 DUP4 ADD MSTORE GAS STATICCALL SWAP5 DUP6 ISZERO PUSH2 0x14A5 JUMPI SWAP1 DUP12 SWAP2 DUP6 SWAP7 PUSH2 0x1474 JUMPI JUMPDEST POP PUSH1 0x8 SLOAD AND SWAP6 DUP4 DUP11 MLOAD DUP1 SWAP9 DUP2 SWAP4 DUP3 MSTORE ADDRESS DUP12 DUP4 ADD MSTORE GAS STATICCALL SWAP5 DUP6 ISZERO PUSH2 0x146A JUMPI DUP4 SWAP6 PUSH2 0x1439 JUMPI JUMPDEST POP PUSH2 0x1239 PUSH2 0x1240 SWAP2 DUP6 PUSH2 0x1D68 JUMP JUMPDEST SWAP7 DUP6 PUSH2 0x1D68 JUMP JUMPDEST SWAP5 PUSH1 0x2 SLOAD SWAP2 DUP3 ISZERO PUSH1 0x0 EQ PUSH2 0x13F6 JUMPI PUSH2 0x1258 DUP8 DUP10 PUSH2 0x1D8C JUMP JUMPDEST DUP5 PUSH1 0x3 DUP3 GT ISZERO PUSH2 0x13E8 JUMPI POP DUP1 PUSH1 0x1 SWAP1 DUP1 DUP3 SHR DUP3 DUP2 ADD DUP1 SWAP2 GT PUSH2 0x13D6 JUMPI SWAP2 SWAP1 JUMPDEST DUP4 DUP4 LT PUSH2 0x13B6 JUMPI POP POP POP JUMPDEST SWAP10 JUMPDEST DUP11 LT PUSH2 0x1374 JUMPI CALLER ISZERO PUSH2 0x1332 JUMPI POP POP SWAP3 PUSH32 0x64B83944E79C3CE8D4C297411DE637C3E102D064677AAC0C163976EBDCD6F50E SWAP5 SWAP3 PUSH2 0x130F SWAP3 PUSH2 0x12C5 DUP11 DUP1 SWAP8 PUSH2 0x1ABD JUMP JUMPDEST PUSH1 0x2 SSTORE CALLER DUP2 MSTORE DUP1 DUP12 MSTORE DUP9 DUP2 KECCAK256 DUP7 DUP2 SLOAD ADD SWAP1 SSTORE DUP9 MLOAD SWAP1 DUP7 DUP3 MSTORE PUSH32 0xDDF252AD1BE2C89B69C2B068FC378DAA952BA7F163C4A11628F55A4DF523B3EF DUP13 CALLER SWAP4 LOG3 DUP1 PUSH1 0x9 SSTORE DUP2 PUSH1 0xA SSTORE PUSH2 0x1D8C JUMP JUMPDEST PUSH1 0xD SSTORE DUP5 MLOAD SWAP4 DUP5 MSTORE PUSH1 0x20 DUP5 ADD MSTORE PUSH1 0x40 DUP4 ADD MSTORE CALLER SWAP2 PUSH1 0x60 SWAP1 LOG2 PUSH1 0x1 PUSH1 0x5 SSTORE MLOAD SWAP1 DUP2 MSTORE RETURN JUMPDEST DUP9 MLOAD PUSH3 0x461BCD PUSH1 0xE5 SHL DUP2 MSTORE SWAP2 DUP3 ADD DUP12 SWAP1 MSTORE PUSH1 0x1F SWAP1 DUP3 ADD MSTORE PUSH32 0x45524332303A206D696E7420746F20746865207A65726F206164647265737300 PUSH1 0x44 DUP3 ADD MSTORE PUSH1 0x64 SWAP1 REVERT JUMPDEST DUP9 MLOAD PUSH3 0x461BCD PUSH1 0xE5 SHL DUP2 MSTORE SWAP2 DUP3 ADD DUP12 SWAP1 MSTORE PUSH1 0x1D SWAP1 DUP3 ADD MSTORE PUSH32 0x496E73756666696369656E74206C6971756964697479206D696E746564000000 PUSH1 0x44 DUP3 ADD MSTORE PUSH1 0x64 SWAP1 REVERT JUMPDEST SWAP1 SWAP2 SWAP3 POP PUSH2 0x13CD DUP4 PUSH2 0x13C8 DUP2 DUP5 PUSH2 0x1D9F JUMP JUMPDEST PUSH2 0x1ABD JUMP JUMPDEST DUP3 SHR SWAP2 SWAP1 PUSH2 0x1277 JUMP JUMPDEST PUSH4 0x4E487B71 PUSH1 0xE0 SHL DUP9 MSTORE PUSH1 0x11 DUP7 MSTORE DUP5 DUP9 REVERT JUMPDEST SWAP1 ISZERO PUSH2 0x1282 JUMPI POP PUSH1 0x1 PUSH2 0x1282 JUMP JUMPDEST PUSH2 0x140C PUSH2 0x1403 DUP5 DUP11 PUSH2 0x1D8C JUMP JUMPDEST PUSH1 0x9 SLOAD SWAP1 PUSH2 0x1D9F JUMP JUMPDEST PUSH2 0x1422 PUSH2 0x1419 DUP6 DUP11 PUSH2 0x1D8C JUMP JUMPDEST PUSH1 0xA SLOAD SWAP1 PUSH2 0x1D9F JUMP JUMPDEST DUP1 DUP3 LT ISZERO PUSH2 0x1432 JUMPI POP JUMPDEST SWAP10 PUSH2 0x1284 JUMP JUMPDEST SWAP1 POP PUSH2 0x142C JUMP JUMPDEST SWAP1 SWAP5 POP DUP10 DUP2 DUP2 RETURNDATASIZE DUP4 GT PUSH2 0x1463 JUMPI JUMPDEST PUSH2 0x1451 DUP2 DUP4 PUSH2 0x1A85 JUMP JUMPDEST DUP2 ADD SUB SLT PUSH2 0x24C JUMPI MLOAD SWAP4 PUSH2 0x1239 PUSH2 0x122B JUMP JUMPDEST POP RETURNDATASIZE PUSH2 0x1447 JUMP JUMPDEST DUP9 MLOAD RETURNDATASIZE DUP6 DUP3 RETURNDATACOPY RETURNDATASIZE SWAP1 REVERT JUMPDEST DUP3 DUP2 SWAP4 SWAP3 SWAP8 POP RETURNDATASIZE DUP4 GT PUSH2 0x149E JUMPI JUMPDEST PUSH2 0x148C DUP2 DUP4 PUSH2 0x1A85 JUMP JUMPDEST DUP2 ADD SUB SLT PUSH2 0x899 JUMPI DUP11 SWAP1 MLOAD SWAP5 CODESIZE PUSH2 0x1207 JUMP JUMPDEST POP RETURNDATASIZE PUSH2 0x1482 JUMP JUMPDEST DUP10 MLOAD RETURNDATASIZE DUP7 DUP3 RETURNDATACOPY RETURNDATASIZE SWAP1 REVERT JUMPDEST PUSH2 0x14C5 SWAP1 DUP13 DUP14 RETURNDATASIZE LT PUSH2 0x8D4 JUMPI PUSH2 0x8C5 DUP2 DUP4 PUSH2 0x1A85 JUMP JUMPDEST POP CODESIZE PUSH2 0x11DF JUMP JUMPDEST PUSH2 0x14E2 SWAP1 DUP8 RETURNDATASIZE DUP10 GT PUSH2 0x8D4 JUMPI PUSH2 0x8C5 DUP2 DUP4 PUSH2 0x1A85 JUMP JUMPDEST POP CODESIZE PUSH2 0x1199 JUMP JUMPDEST SWAP1 SWAP2 SWAP13 DUP1 SWAP13 SWAP12 SWAP11 POP DUP2 DUP2 RETURNDATASIZE DUP4 GT PUSH2 0x151B JUMPI JUMPDEST PUSH2 0x1505 DUP2 DUP4 PUSH2 0x1A85 JUMP JUMPDEST DUP2 ADD SUB SLT PUSH2 0xE9E JUMPI MLOAD SWAP11 SWAP12 SWAP10 SWAP11 SWAP9 SWAP10 SWAP1 DUP13 PUSH2 0x114C JUMP JUMPDEST POP RETURNDATASIZE PUSH2 0x14FB JUMP JUMPDEST DUP14 DUP1 SWAP3 SWAP8 SWAP9 POP DUP2 SWAP4 SWAP5 SWAP6 SWAP7 POP RETURNDATASIZE DUP4 GT PUSH2 0x1557 JUMPI JUMPDEST PUSH2 0x1540 DUP2 DUP4 PUSH2 0x1A85 JUMP JUMPDEST DUP2 ADD SUB SLT PUSH2 0xE9E JUMPI SWAP1 DUP9 SWAP6 SWAP5 SWAP4 SWAP3 SWAP2 MLOAD SWAP4 CODESIZE PUSH2 0x1126 JUMP JUMPDEST POP RETURNDATASIZE PUSH2 0x1536 JUMP JUMPDEST DUP11 MLOAD RETURNDATASIZE DUP9 DUP3 RETURNDATACOPY RETURNDATASIZE SWAP1 REVERT JUMPDEST DUP4 MLOAD PUSH3 0x461BCD PUSH1 0xE5 SHL DUP2 MSTORE PUSH1 0x20 DUP2 DUP5 ADD MSTORE PUSH1 0x1E PUSH1 0x24 DUP3 ADD MSTORE PUSH32 0x416D6F756E7473206D7573742062652067726561746572207468616E20300000 PUSH1 0x44 DUP3 ADD MSTORE PUSH1 0x64 SWAP1 REVERT JUMPDEST POP DUP1 ISZERO ISZERO PUSH2 0x10D8 JUMP JUMPDEST POP POP CALLVALUE PUSH2 0x351 JUMPI DUP1 PUSH1 0x3 NOT CALLDATASIZE ADD SLT PUSH2 0x351 JUMPI PUSH2 0x44A PUSH1 0x20 SWAP3 PUSH2 0x15FD PUSH2 0x15D7 PUSH2 0x19E2 JUMP JUMPDEST CALLER DUP4 MSTORE PUSH1 0x1 DUP7 MSTORE DUP5 DUP4 KECCAK256 PUSH1 0x1 PUSH1 0x1 PUSH1 0xA0 SHL SUB DUP3 AND DUP5 MSTORE DUP7 MSTORE SWAP2 DUP5 SWAP1 KECCAK256 SLOAD PUSH1 0x24 CALLDATALOAD SWAP1 PUSH2 0x1ABD JUMP JUMPDEST SWAP1 CALLER PUSH2 0x1C4E JUMP JUMPDEST POP POP CALLVALUE PUSH2 0x351 JUMPI DUP2 PUSH1 0x3 NOT CALLDATASIZE ADD SLT PUSH2 0x351 JUMPI PUSH1 0x20 SWAP1 MLOAD PUSH1 0x12 DUP2 MSTORE RETURN JUMPDEST POP DUP3 SWAP1 CALLVALUE PUSH2 0x351 JUMPI PUSH1 0x60 CALLDATASIZE PUSH1 0x3 NOT ADD SLT PUSH2 0x351 JUMPI PUSH2 0x163C PUSH2 0x19E2 JUMP JUMPDEST PUSH2 0x1644 PUSH2 0x19FD JUMP JUMPDEST SWAP2 DUP5 PUSH1 0x44 CALLDATALOAD SWAP5 PUSH1 0x1 DUP1 PUSH1 0xA0 SHL SUB DUP5 AND DUP2 MSTORE PUSH1 0x1 PUSH1 0x20 MSTORE DUP2 DUP2 KECCAK256 CALLER DUP3 MSTORE PUSH1 0x20 MSTORE KECCAK256 SLOAD SWAP1 PUSH1 0x0 NOT DUP3 SUB PUSH2 0x167E JUMPI JUMPDEST PUSH1 0x20 DUP7 PUSH2 0x44A DUP8 DUP8 DUP8 PUSH2 0x1AE0 JUMP JUMPDEST DUP5 DUP3 LT PUSH2 0x16A7 JUMPI POP SWAP2 DUP4 SWAP2 PUSH2 0x169C PUSH1 0x20 SWAP7 SWAP6 PUSH2 0x44A SWAP6 SUB CALLER DUP4 PUSH2 0x1C4E JUMP JUMPDEST SWAP2 SWAP4 SWAP5 DUP2 SWAP4 POP PUSH2 0x1670 JUMP JUMPDEST PUSH1 0x64 SWAP1 PUSH1 0x20 DUP8 MLOAD SWAP2 PUSH3 0x461BCD PUSH1 0xE5 SHL DUP4 MSTORE DUP3 ADD MSTORE PUSH1 0x1D PUSH1 0x24 DUP3 ADD MSTORE PUSH32 0x45524332303A20696E73756666696369656E7420616C6C6F77616E6365000000 PUSH1 0x44 DUP3 ADD MSTORE REVERT JUMPDEST POP POP CALLVALUE PUSH2 0x351 JUMPI DUP2 PUSH1 0x3 NOT CALLDATASIZE ADD SLT PUSH2 0x351 JUMPI PUSH1 0x20 SWAP1 PUSH1 0xB SLOAD SWAP1 MLOAD SWAP1 DUP2 MSTORE RETURN JUMPDEST POP POP CALLVALUE PUSH2 0x351 JUMPI DUP2 PUSH1 0x3 NOT CALLDATASIZE ADD SLT PUSH2 0x351 JUMPI PUSH1 0x20 SWAP1 PUSH1 0x2 SLOAD SWAP1 MLOAD SWAP1 DUP2 MSTORE RETURN JUMPDEST POP SWAP2 SWAP1 CALLVALUE PUSH2 0x351 JUMPI DUP1 PUSH1 0x3 NOT CALLDATASIZE ADD SLT PUSH2 0x351 JUMPI DUP3 CALLDATALOAD PUSH2 0x1745 PUSH2 0x19FD JUMP JUMPDEST SWAP1 PUSH2 0x1751 DUP2 ISZERO ISZERO PUSH2 0x1E15 JUMP JUMPDEST PUSH1 0x7 SLOAD PUSH1 0x1 PUSH1 0x1 PUSH1 0xA0 SHL SUB SWAP3 DUP4 AND SWAP1 DUP4 AND DUP2 EQ SWAP3 PUSH2 0x1778 SWAP2 DUP5 SWAP2 DUP3 ISZERO PUSH2 0x323 JUMPI POP POP PUSH2 0x1E61 JUMP JUMPDEST DUP2 ISZERO PUSH2 0x1809 JUMPI PUSH1 0x9 SLOAD SWAP2 JUMPDEST ISZERO PUSH2 0x17FC JUMPI PUSH2 0x1795 DUP2 PUSH1 0xA SLOAD SWAP4 PUSH2 0x1D8C JUMP JUMPDEST SWAP2 PUSH2 0x2710 SWAP3 DUP4 DUP2 MUL SWAP4 DUP2 DUP6 DIV EQ SWAP1 ISZERO OR ISZERO PUSH2 0x17E9 JUMPI PUSH2 0x17BB PUSH2 0x17C0 SWAP4 SWAP3 PUSH2 0x2EB SWAP3 PUSH2 0x1D68 JUMP JUMPDEST PUSH2 0x1D75 JUMP JUMPDEST SWAP2 PUSH1 0x1 DUP4 ADD DUP1 SWAP4 GT PUSH2 0x17D6 JUMPI PUSH1 0x20 DUP4 DUP4 MLOAD SWAP1 DUP2 MSTORE RETURN JUMPDEST PUSH4 0x4E487B71 PUSH1 0xE0 SHL DUP2 MSTORE PUSH1 0x11 DUP5 MSTORE PUSH1 0x24 SWAP1 REVERT JUMPDEST PUSH4 0x4E487B71 PUSH1 0xE0 SHL DUP6 MSTORE PUSH1 0x11 DUP7 MSTORE PUSH1 0x24 DUP6 REVERT JUMPDEST PUSH2 0x1795 DUP2 PUSH1 0x9 SLOAD SWAP4 PUSH2 0x1D8C JUMP JUMPDEST PUSH1 0xA SLOAD SWAP2 PUSH2 0x1783 JUMP JUMPDEST POP POP CALLVALUE PUSH2 0x351 JUMPI DUP2 PUSH1 0x3 NOT CALLDATASIZE ADD SLT PUSH2 0x351 JUMPI PUSH1 0x7 SLOAD SWAP1 MLOAD PUSH1 0x1 PUSH1 0x1 PUSH1 0xA0 SHL SUB SWAP1 SWAP2 AND DUP2 MSTORE PUSH1 0x20 SWAP1 RETURN JUMPDEST POP POP CALLVALUE PUSH2 0x351 JUMPI DUP1 PUSH1 0x3 NOT CALLDATASIZE ADD SLT PUSH2 0x351 JUMPI PUSH1 0x20 SWAP1 PUSH2 0x44A PUSH2 0x185B PUSH2 0x19E2 JUMP JUMPDEST PUSH1 0x24 CALLDATALOAD SWAP1 CALLER PUSH2 0x1C4E JUMP JUMPDEST DUP3 DUP5 CALLVALUE PUSH2 0x331 JUMPI DUP1 PUSH1 0x3 NOT CALLDATASIZE ADD SLT PUSH2 0x331 JUMPI POP PUSH1 0x9 SLOAD PUSH1 0xA SLOAD DUP3 MLOAD SWAP2 DUP3 MSTORE PUSH1 0x20 DUP3 ADD MSTORE RETURN JUMPDEST POP SWAP1 CALLVALUE PUSH2 0x24C JUMPI DUP3 PUSH1 0x3 NOT CALLDATASIZE ADD SLT PUSH2 0x24C JUMPI DUP1 MLOAD SWAP2 DUP4 PUSH1 0x3 SLOAD SWAP1 PUSH1 0x1 SWAP1 DUP3 DUP3 SHR SWAP3 DUP3 DUP2 AND DUP1 ISZERO PUSH2 0x1974 JUMPI JUMPDEST PUSH1 0x20 SWAP6 DUP7 DUP7 LT DUP3 EQ PUSH2 0x1961 JUMPI POP DUP5 DUP9 MSTORE SWAP1 DUP2 ISZERO PUSH2 0x193F JUMPI POP PUSH1 0x1 EQ PUSH2 0x18E6 JUMPI JUMPDEST PUSH2 0x55C DUP7 DUP7 PUSH2 0x552 DUP3 DUP12 SUB DUP4 PUSH2 0x1A85 JUMP JUMPDEST SWAP3 SWAP6 POP PUSH1 0x3 DUP4 MSTORE PUSH32 0xC2575A0E9E593C00F959F8C92F12DB2869C3395A3B0502D05E2516446F71F85B JUMPDEST DUP3 DUP5 LT PUSH2 0x192C JUMPI POP POP POP DUP3 PUSH2 0x55C SWAP5 PUSH2 0x552 SWAP3 DUP3 ADD ADD SWAP5 CODESIZE PUSH2 0x18D5 JUMP JUMPDEST DUP1 SLOAD DUP7 DUP6 ADD DUP9 ADD MSTORE SWAP3 DUP7 ADD SWAP3 DUP2 ADD PUSH2 0x190F JUMP JUMPDEST PUSH1 0xFF NOT AND DUP8 DUP7 ADD MSTORE POP POP POP ISZERO ISZERO PUSH1 0x5 SHL DUP4 ADD ADD SWAP3 POP PUSH2 0x552 DUP3 PUSH2 0x55C CODESIZE PUSH2 0x18D5 JUMP JUMPDEST PUSH4 0x4E487B71 PUSH1 0xE0 SHL DUP5 MSTORE PUSH1 0x22 SWAP1 MSTORE PUSH1 0x24 DUP4 REVERT JUMPDEST SWAP4 PUSH1 0x7F AND SWAP4 PUSH2 0x18B5 JUMP JUMPDEST DUP5 SWAP1 CALLVALUE PUSH2 0x351 JUMPI DUP2 PUSH1 0x3 NOT CALLDATASIZE ADD SLT PUSH2 0x351 JUMPI DUP1 PUSH1 0x1E PUSH1 0x20 SWAP3 MSTORE RETURN JUMPDEST PUSH1 0x20 DUP1 DUP3 MSTORE DUP3 MLOAD DUP2 DUP4 ADD DUP2 SWAP1 MSTORE SWAP1 SWAP4 SWAP3 PUSH1 0x0 JUMPDEST DUP3 DUP2 LT PUSH2 0x19CE JUMPI POP POP PUSH1 0x40 SWAP3 SWAP4 POP PUSH1 0x0 DUP4 DUP3 DUP5 ADD ADD MSTORE PUSH1 0x1F DUP1 NOT SWAP2 ADD AND ADD ADD SWAP1 JUMP JUMPDEST DUP2 DUP2 ADD DUP7 ADD MLOAD DUP5 DUP3 ADD PUSH1 0x40 ADD MSTORE DUP6 ADD PUSH2 0x19AC JUMP JUMPDEST PUSH1 0x4 CALLDATALOAD SWAP1 PUSH1 0x1 PUSH1 0x1 PUSH1 0xA0 SHL SUB DUP3 AND DUP3 SUB PUSH2 0x19F8 JUMPI JUMP JUMPDEST PUSH1 0x0 DUP1 REVERT JUMPDEST PUSH1 0x24 CALLDATALOAD SWAP1 PUSH1 0x1 PUSH1 0x1 PUSH1 0xA0 SHL SUB DUP3 AND DUP3 SUB PUSH2 0x19F8 JUMPI JUMP JUMPDEST PUSH1 0x60 SWAP1 PUSH1 0x3 NOT ADD SLT PUSH2 0x19F8 JUMPI PUSH1 0x4 CALLDATALOAD SWAP1 PUSH1 0x24 CALLDATALOAD SWAP1 PUSH1 0x44 CALLDATALOAD SWAP1 JUMP JUMPDEST PUSH1 0x6 SLOAD PUSH1 0x1 PUSH1 0x1 PUSH1 0xA0 SHL SUB AND CALLER SUB PUSH2 0x1A41 JUMPI JUMP JUMPDEST PUSH1 0x64 PUSH1 0x40 MLOAD PUSH3 0x461BCD PUSH1 0xE5 SHL DUP2 MSTORE PUSH1 0x20 PUSH1 0x4 DUP3 ADD MSTORE PUSH1 0x20 PUSH1 0x24 DUP3 ADD MSTORE PUSH32 0x4F776E61626C653A2063616C6C6572206973206E6F7420746865206F776E6572 PUSH1 0x44 DUP3 ADD MSTORE REVERT JUMPDEST SWAP1 PUSH1 0x1F DUP1 NOT SWAP2 ADD AND DUP2 ADD SWAP1 DUP2 LT PUSH8 0xFFFFFFFFFFFFFFFF DUP3 GT OR PUSH2 0x1AA7 JUMPI PUSH1 0x40 MSTORE JUMP JUMPDEST PUSH4 0x4E487B71 PUSH1 0xE0 SHL PUSH1 0x0 MSTORE PUSH1 0x41 PUSH1 0x4 MSTORE PUSH1 0x24 PUSH1 0x0 REVERT JUMPDEST SWAP2 SWAP1 DUP3 ADD DUP1 SWAP3 GT PUSH2 0x1ACA JUMPI JUMP JUMPDEST PUSH4 0x4E487B71 PUSH1 0xE0 SHL PUSH1 0x0 MSTORE PUSH1 0x11 PUSH1 0x4 MSTORE PUSH1 0x24 PUSH1 0x0 REVERT JUMPDEST PUSH1 0x1 PUSH1 0x1 PUSH1 0xA0 SHL SUB SWAP1 DUP2 AND SWAP2 DUP3 ISZERO PUSH2 0x1BFB JUMPI AND SWAP2 DUP3 ISZERO PUSH2 0x1BAA JUMPI PUSH1 0x0 DUP3 DUP2 MSTORE DUP1 PUSH1 0x20 MSTORE PUSH1 0x40 DUP2 KECCAK256 SLOAD SWAP2 DUP1 DUP4 LT PUSH2 0x1B56 JUMPI PUSH1 0x40 DUP3 DUP3 PUSH32 0xDDF252AD1BE2C89B69C2B068FC378DAA952BA7F163C4A11628F55A4DF523B3EF SWAP6 DUP8 PUSH1 0x20 SWAP7 MSTORE DUP3 DUP7 MSTORE SUB DUP3 DUP3 KECCAK256 SSTORE DUP7 DUP2 MSTORE KECCAK256 DUP2 DUP2 SLOAD ADD SWAP1 SSTORE PUSH1 0x40 MLOAD SWAP1 DUP2 MSTORE LOG3 JUMP JUMPDEST PUSH1 0x40 MLOAD PUSH3 0x461BCD PUSH1 0xE5 SHL DUP2 MSTORE PUSH1 0x20 PUSH1 0x4 DUP3 ADD MSTORE PUSH1 0x26 PUSH1 0x24 DUP3 ADD MSTORE PUSH32 0x45524332303A207472616E7366657220616D6F756E7420657863656564732062 PUSH1 0x44 DUP3 ADD MSTORE PUSH6 0x616C616E6365 PUSH1 0xD0 SHL PUSH1 0x64 DUP3 ADD MSTORE PUSH1 0x84 SWAP1 REVERT JUMPDEST PUSH1 0x40 MLOAD PUSH3 0x461BCD PUSH1 0xE5 SHL DUP2 MSTORE PUSH1 0x20 PUSH1 0x4 DUP3 ADD MSTORE PUSH1 0x23 PUSH1 0x24 DUP3 ADD MSTORE PUSH32 0x45524332303A207472616E7366657220746F20746865207A65726F2061646472 PUSH1 0x44 DUP3 ADD MSTORE PUSH3 0x657373 PUSH1 0xE8 SHL PUSH1 0x64 DUP3 ADD MSTORE PUSH1 0x84 SWAP1 REVERT JUMPDEST PUSH1 0x40 MLOAD PUSH3 0x461BCD PUSH1 0xE5 SHL DUP2 MSTORE PUSH1 0x20 PUSH1 0x4 DUP3 ADD MSTORE PUSH1 0x25 PUSH1 0x24 DUP3 ADD MSTORE PUSH32 0x45524332303A207472616E736665722066726F6D20746865207A65726F206164 PUSH1 0x44 DUP3 ADD MSTORE PUSH5 0x6472657373 PUSH1 0xD8 SHL PUSH1 0x64 DUP3 ADD MSTORE PUSH1 0x84 SWAP1 REVERT JUMPDEST PUSH1 0x1 PUSH1 0x1 PUSH1 0xA0 SHL SUB SWAP1 DUP2 AND SWAP2 DUP3 ISZERO PUSH2 0x1CFF JUMPI AND SWAP2 DUP3 ISZERO PUSH2 0x1CAF JUMPI PUSH1 0x20 PUSH32 0x8C5BE1E5EBEC7D5BD14F71427D1E84F3DD0314C0F7B2291E5B200AC8C7C3B925 SWAP2 DUP4 PUSH1 0x0 MSTORE PUSH1 0x1 DUP3 MSTORE PUSH1 0x40 PUSH1 0x0 KECCAK256 DUP6 PUSH1 0x0 MSTORE DUP3 MSTORE DUP1 PUSH1 0x40 PUSH1 0x0 KECCAK256 SSTORE PUSH1 0x40 MLOAD SWAP1 DUP2 MSTORE LOG3 JUMP JUMPDEST PUSH1 0x40 MLOAD PUSH3 0x461BCD PUSH1 0xE5 SHL DUP2 MSTORE PUSH1 0x20 PUSH1 0x4 DUP3 ADD MSTORE PUSH1 0x22 PUSH1 0x24 DUP3 ADD MSTORE PUSH32 0x45524332303A20617070726F766520746F20746865207A65726F206164647265 PUSH1 0x44 DUP3 ADD MSTORE PUSH2 0x7373 PUSH1 0xF0 SHL PUSH1 0x64 DUP3 ADD MSTORE PUSH1 0x84 SWAP1 REVERT JUMPDEST PUSH1 0x40 MLOAD PUSH3 0x461BCD PUSH1 0xE5 SHL DUP2 MSTORE PUSH1 0x20 PUSH1 0x4 DUP3 ADD MSTORE PUSH1 0x24 DUP1 DUP3 ADD MSTORE PUSH32 0x45524332303A20617070726F76652066726F6D20746865207A65726F20616464 PUSH1 0x44 DUP3 ADD MSTORE PUSH4 0x72657373 PUSH1 0xE0 SHL PUSH1 0x64 DUP3 ADD MSTORE PUSH1 0x84 SWAP1 REVERT JUMPDEST SWAP1 DUP2 PUSH1 0x20 SWAP2 SUB SLT PUSH2 0x19F8 JUMPI MLOAD DUP1 ISZERO ISZERO DUP2 SUB PUSH2 0x19F8 JUMPI SWAP1 JUMP JUMPDEST SWAP2 SWAP1 DUP3 SUB SWAP2 DUP3 GT PUSH2 0x1ACA JUMPI JUMP JUMPDEST SWAP1 PUSH2 0x26F2 SWAP2 DUP3 DUP2 MUL SWAP3 DUP2 DUP5 DIV EQ SWAP1 ISZERO OR ISZERO PUSH2 0x1ACA JUMPI JUMP JUMPDEST DUP2 DUP2 MUL SWAP3 SWAP2 DUP2 ISZERO SWAP2 DUP5 DIV EQ OR ISZERO PUSH2 0x1ACA JUMPI JUMP JUMPDEST DUP2 ISZERO PUSH2 0x1DA9 JUMPI DIV SWAP1 JUMP JUMPDEST PUSH4 0x4E487B71 PUSH1 0xE0 SHL PUSH1 0x0 MSTORE PUSH1 0x12 PUSH1 0x4 MSTORE PUSH1 0x24 PUSH1 0x0 REVERT JUMPDEST PUSH1 0x2 PUSH1 0x5 SLOAD EQ PUSH2 0x1DD0 JUMPI PUSH1 0x2 PUSH1 0x5 SSTORE JUMP JUMPDEST PUSH1 0x40 MLOAD PUSH3 0x461BCD PUSH1 0xE5 SHL DUP2 MSTORE PUSH1 0x20 PUSH1 0x4 DUP3 ADD MSTORE PUSH1 0x1F PUSH1 0x24 DUP3 ADD MSTORE PUSH32 0x5265656E7472616E637947756172643A207265656E7472616E742063616C6C00 PUSH1 0x44 DUP3 ADD MSTORE PUSH1 0x64 SWAP1 REVERT JUMPDEST ISZERO PUSH2 0x1E1C JUMPI JUMP JUMPDEST PUSH1 0x40 MLOAD PUSH3 0x461BCD PUSH1 0xE5 SHL DUP2 MSTORE PUSH1 0x20 PUSH1 0x4 DUP3 ADD MSTORE PUSH1 0x1D PUSH1 0x24 DUP3 ADD MSTORE PUSH32 0x416D6F756E74206D7573742062652067726561746572207468616E2030000000 PUSH1 0x44 DUP3 ADD MSTORE PUSH1 0x64 SWAP1 REVERT JUMPDEST ISZERO PUSH2 0x1E68 JUMPI JUMP JUMPDEST PUSH1 0x40 MLOAD PUSH3 0x461BCD PUSH1 0xE5 SHL DUP2 MSTORE PUSH1 0x20 PUSH1 0x4 DUP3 ADD MSTORE PUSH1 0xD PUSH1 0x24 DUP3 ADD MSTORE PUSH13 0x24B73B30B634B2103A37B5B2B7 PUSH1 0x99 SHL PUSH1 0x44 DUP3 ADD MSTORE PUSH1 0x64 SWAP1 REVERT JUMPDEST PUSH1 0x9 SLOAD DUP1 ISZERO PUSH2 0x1ED0 JUMPI PUSH1 0xA SLOAD SWAP1 PUSH8 0xDE0B6B3A7640000 SWAP2 DUP3 DUP2 MUL SWAP3 DUP2 DUP5 DIV EQ SWAP1 ISZERO OR ISZERO PUSH2 0x1ACA JUMPI PUSH2 0x1ECD SWAP2 PUSH2 0x1D9F JUMP JUMPDEST SWAP1 JUMP JUMPDEST POP PUSH1 0x0 SWAP1 JUMP JUMPDEST PUSH1 0xA SLOAD DUP1 ISZERO PUSH2 0x1ED0 JUMPI PUSH1 0x9 SLOAD SWAP1 PUSH8 0xDE0B6B3A7640000 SWAP2 DUP3 DUP2 MUL SWAP3 DUP2 DUP5 DIV EQ SWAP1 ISZERO OR ISZERO PUSH2 0x1ACA JUMPI PUSH2 0x1ECD SWAP2 PUSH2 0x1D9F JUMP INVALID LOG2 PUSH5 0x6970667358 0x22 SLT KECCAK256 MLOAD 0xF RETURN 0x1F NOT PUSH6 0xCE4F089493CE DUP6 0xB1 0x2A 0x4E XOR 0xAA 0xAB NUMBER 0xD 0xB4 DUP12 0x24 SWAP6 PUSH14 0x33415094838B64736F6C63430008 SGT STOP CALLER "},"methodIdentifiers":{"FEE_DENOMINATOR()":"d73792a9","FEE_PERCENTAGE()":"000b46f8","addLiquidity(uint256,uint256,uint256)":"422f1043","allowance(address,address)":"dd62ed3e","approve(address,uint256)":"095ea7b3","balanceOf(address)":"70a08231","decimals()":"313ce567","decreaseAllowance(address,uint256)":"a457c2d7","feeCollected0()":"1c20695f","feeCollected1()":"65f06a63","getAmountIn(uint256,address)":"1125f13f","getAmountOut(uint256,address)":"f140a35a","getPrice0()":"e84b8fe5","getPrice1()":"a941ada9","getReserves()":"0902f1ac","increaseAllowance(address,uint256)":"39509351","lastKValue()":"c44418d4","name()":"06fdde03","owner()":"8da5cb5b","paused()":"5c975abb","removeLiquidity(uint256,uint256,uint256)":"857620e1","renounceOwnership()":"715018a6","reserve0()":"443cb4bc","reserve1()":"5a76f25e","swap(uint256,uint256,address)":"6d9a640a","symbol()":"95d89b41","token0()":"0dfe1681","token1()":"d21220a7","totalSupply()":"18160ddd","transfer(address,uint256)":"a9059cbb","transferFrom(address,address,uint256)":"23b872dd","transferOwnership(address)":"f2fde38b"}}}}}