{
  "_format": "hh-sol-artifact-1",
  "contractName": "DexOperator",
  "sourceName": "contracts/DexOperator.sol",
  "abi": [
    {
      "anonymous": false,
      "inputs": [
        {
          "indexed": true,
          "internalType": "address",
          "name": "executor",
          "type": "address"
        },
        {
          "indexed": true,
          "internalType": "address",
          "name": "pool",
          "type": "address"
        },
        {
          "indexed": false,
          "internalType": "uint256",
          "name": "amountIn",
          "type": "uint256"
        },
        {
          "indexed": false,
          "internalType": "uint256",
          "name": "amountOut",
          "type": "uint256"
        }
      ],
      "name": "OperatorSwapExecuted",
      "type": "event"
    },
    {
      "anonymous": false,
      "inputs": [
        {
          "indexed": true,
          "internalType": "address",
          "name": "previousOwner",
          "type": "address"
        },
        {
          "indexed": true,
          "internalType": "address",
          "name": "newOwner",
          "type": "address"
        }
      ],
      "name": "OwnershipTransferred",
      "type": "event"
    },
    {
      "inputs": [
        {
          "internalType": "address",
          "name": "pool",
          "type": "address"
        },
        {
          "internalType": "uint256",
          "name": "amountIn",
          "type": "uint256"
        },
        {
          "internalType": "uint256",
          "name": "minAmountOut",
          "type": "uint256"
        },
        {
          "internalType": "address",
          "name": "tokenIn",
          "type": "address"
        }
      ],
      "name": "executeSwap",
      "outputs": [
        {
          "internalType": "uint256",
          "name": "amountOut",
          "type": "uint256"
        }
      ],
      "stateMutability": "nonpayable",
      "type": "function"
    },
    {
      "inputs": [],
      "name": "owner",
      "outputs": [
        {
          "internalType": "address",
          "name": "",
          "type": "address"
        }
      ],
      "stateMutability": "view",
      "type": "function"
    },
    {
      "inputs": [
        {
          "internalType": "address",
          "name": "token",
          "type": "address"
        },
        {
          "internalType": "uint256",
          "name": "amount",
          "type": "uint256"
        }
      ],
      "name": "recoverToken",
      "outputs": [],
      "stateMutability": "nonpayable",
      "type": "function"
    },
    {
      "inputs": [],
      "name": "renounceOwnership",
      "outputs": [],
      "stateMutability": "nonpayable",
      "type": "function"
    },
    {
      "inputs": [
        {
          "internalType": "address",
          "name": "newOwner",
          "type": "address"
        }
      ],
      "name": "transferOwnership",
      "outputs": [],
      "stateMutability": "nonpayable",
      "type": "function"
    }
  ],
  "bytecode": "0x6080806040523461005b5760008054336001600160a01b0319821681178355916001600160a01b03909116907f8be0079c531659141344cd1fd0a4f28419497f9722a3daafe3b4186f6b6457e09080a36107f190816100618239f35b600080fdfe60406080815260048036101561001457600080fd5b600091823560e01c8063715018a61461054d5780638da5cb5b14610521578063b29a814014610487578063f2fde38b146103c45763f36bf7cf1461005757600080fd5b346103c05760803660031901126103c0576100706105aa565b91602480359060649586359360018060a01b03978886169889870361028d5780891696871561039057861561035e5788516323b872dd60e01b8152338582015230878201526044810188905260209b908c8186818a865af1801561033757610341575b50895163095ea7b360e01b81526001600160a01b038c16868201908152602081018a90528d908290819060400103818a865af180156103375761031a575b5089518c8101916336cd320560e11b8352898983015260443560448301528582015284815260a0810181811067ffffffffffffffff821117610308578b52518691829190828e5af1610161610689565b90156102d9578b818051810103126102d557908b6101819201519a6106e8565b169081156102a2575088875180956370a0823160e01b8252308583015281845afa9182156102985790899291849261025d575b885163a9059cbb60e01b815233918101918252602082019390935291945084918290859082906040015b03925af19081156102525750610225575b50825190815283858201527fe689daeb93072bf3db679c2c86ca6ec76108d2b5615aacce2204b1897458e744833392a351908152f35b61024490863d881161024b575b61023c818361064f565b810190610671565b50386101ef565b503d610232565b8551903d90823e3d90fd5b93948092508391933d8311610291575b610277818361064f565b8101031261028d57516101de93928992906101b4565b8380fd5b503d61026d565b87513d85823e3d90fd5b875162461bcd60e51b81528084018b905260118187015270125b9d985b1a59081d1bdad95b881bdd5d607a1b6044820152fd5b8580fd5b895162461bcd60e51b81528086018d9052600b818901526a14ddd85c0819985a5b195960aa1b60448201528490fd5b634e487b7160e01b8852604187528888fd5b610330908d803d1061024b5761023c818361064f565b5038610111565b8b513d89823e3d90fd5b610357908d803d1061024b5761023c818361064f565b50386100d3565b885162461bcd60e51b8152602081860152600e818801526d125b9d985b1a5908185b5bdd5b9d60921b60448201528390fd5b885162461bcd60e51b8152602081860152600c818801526b125b9d985b1a59081c1bdbdb60a21b60448201528390fd5b8280fd5b5090346103c05760203660031901126103c0576103df6105aa565b906103e86105c5565b6001600160a01b0391821692831561043557505082546001600160a01b0319811683178455167f8be0079c531659141344cd1fd0a4f28419497f9722a3daafe3b4186f6b6457e08380a380f35b906020608492519162461bcd60e51b8352820152602660248201527f4f776e61626c653a206e6577206f776e657220697320746865207a65726f206160448201526564647265737360d01b6064820152fd5b50346103c057806003193601126103c05760206104e8926104a66105aa565b6104ae6105c5565b8554845163a9059cbb60e01b81526001600160a01b0391821693810193845260243560208501529586938492899290918491604090910190565b0393165af190811561051857506104fd575080f35b6105149060203d811161024b5761023c818361064f565b5080f35b513d84823e3d90fd5b838234610549578160031936011261054957905490516001600160a01b039091168152602090f35b5080fd5b83346105a757806003193601126105a7576105666105c5565b80546001600160a01b03198116825581906001600160a01b03167f8be0079c531659141344cd1fd0a4f28419497f9722a3daafe3b4186f6b6457e08280a380f35b80fd5b600435906001600160a01b03821682036105c057565b600080fd5b6000546001600160a01b031633036105d957565b606460405162461bcd60e51b815260206004820152602060248201527f4f776e61626c653a2063616c6c6572206973206e6f7420746865206f776e65726044820152fd5b6040810190811067ffffffffffffffff82111761063957604052565b634e487b7160e01b600052604160045260246000fd5b90601f8019910116810190811067ffffffffffffffff82111761063957604052565b908160209103126105c0575180151581036105c05790565b3d156106c4573d9067ffffffffffffffff821161063957604051916106b8601f8201601f19166020018461064f565b82523d6000602084013e565b606090565b908160209103126105c057516001600160a01b03811681036105c05790565b906040519160008060209485810190630dfe168160e01b82526004815261070e8161061d565b5190845afa9060008061071f610689565b926040518781019063d21220a760e01b82526004815261073e8161061d565b51915afa9161074b610689565b92816107b3575b50610761575b50505050600090565b80516001600160a01b0392839261079392849161078491810189019089016106c9565b169580825183010191016106c9565b1691168281146107ad57146107aa57808080610758565b90565b50905090565b90503861075256fea264697066735822122042d1dc8797b15210d36b0cc15f325ad7daeb42880b5bc8e69e13e695fc5cccba64736f6c63430008130033",
  "linkReferences": {},
  "deployedLinkReferences": {}
}